:100000000C943B000C9458000C9458000C9458002D
:100010000C9458000C9458000C9458000C94580000
:100020000C9458000C9458000C9458000C945800F0
:100030000C9458000C9458000C9458000C945800E0
:100040000C9458000C9458000C9458000C945800D0
:100050000C945800010204081020408000010203A3
:100060000405060708090A0B0C0D0E0F3F065B4F2F
:10007000666D7D077F6F11241FBECFE5D4E0DEBF24
:10008000CDBF10E0A0E6B0E0E2EBF3E002C00590E7
:100090000D92A036B107D9F710E0A0E6B0E001C09C
:1000A0001D92A737B107E1F70E948B010C94D7018D
:1000B0000C9400000E945101E7E6F0E0CF01409669
:1000C0001192E817F907E1F708950F931F93CF9363
:1000D000DF93462FC7E6D0E08E01005F1F4F2AE076
:1000E00030E0B9010E94C301FC01862F972FE4592B
:1000F000FF4FE491E993C017D10799F7842F8150FE
:10010000803138F4E42FF0E0EA59FF4F80818068B5
:100110008083DF91CF911F910F910895FF920F93EC
:100120001F93CF93DF93EC01F62E322F842F815053
:100130008031A0F5222391F1CE016AE070E00E94A7
:10014000C301FC01E459FF4FE491A42FB0E0AA5988
:10015000BF4FEC93242F2F5F213100F5CE016AE0D1
:1001600070E00E94C301862F972F430FCAE0D0E0B2
:1001700007E610E011C0BE010E94C301FC01862FFA
:10018000972FE459FF4FE491D801A20FB11D1197A9
:10019000EC932F5F213111F0241769F78F2D8150D7
:1001A000803138F4EF2DF0E0EA59FF4F808180680C
:1001B0008083DF91CF911F910F91FF900895CF938E
:1001C000DF938FEF8093660080E090E020E030E0E6
:1001D00041E050E0FC01E45AFF4FE491BA0102C053
:1001E000660F771FEA95E2F7262B372B01968031B1
:1001F000910581F7922F90958091650089238093D6
:100200006500E5E6F0E0932F909582918923808345
:1002100083E0BF010E946601E0916000F0E0EC5ACB
:10022000FF4FA7E6B0E080E090E020E030E064918E
:1002300041E050E07D91762361F0FC01E45AFF4FEC
:10024000E491EA0102C0CC0FDD1FEA95E2F72C2B06
:100250003D2B01968031910569F780916500822BD5
:1002600080936500A5E6B0E08E91832B8C938091FE
:100270006000E82FF0E0EC5AFF4FE491E095129611
:100280009C911297E9231296EC9312978F5F8770D7
:100290008093600083E0BD010E946601DF91CF91F1
:1002A000089580EB87BB80EF88BB82E58DB91EB8CF
:1002B0000895C4988FB9779BFECFC49A0895C498C7
:1002C0008FB9779BFECF8FB1C49A0895FB01C49874
:1002D0009B01280F311DC90104C021912FB9779BC3
:1002E000FECFE817F907C9F7C49A0895FB01C4982F
:1002F000882379F081509B01280F311DC901019697
:1003000020812FB9779BFECF2FB12193E817F907F2
:10031000B9F7C49A08950E945A0084E68093630056
:1003200088EE90E190936200809361008091630079
:100330008436D9F41092630080916100909162003C
:1003400060E04AE024E00E948E008DE290E060E0F0
:1003500046E023E00E948E0080916100909162004F
:10036000019690936200809361000E94DF0083EC0D
:1003700099E00197F1F700C00000809163008F5F62
:1003800080936300D3CFAA1BBB1B51E107C0AA1FF8
:10039000BB1FA617B70710F0A61BB70B881F991F26
:1003A0005A95A9F780959095BC01CD010895F894D0
:0203B000FFCF7D
:00000001FF
