:0E0000000C9441000C9400000C9400000C9431
:10000E0000000C9400000C9400000C9400000C9462
:10001E0000000C9400000C9400000C9400000C9452
:10002E0000000C9400000C9400000C9400000C9442
:10003E0000000C9400000C9400000C9400000C9432
:10004E0000000C9400003F065B4F666D7D077F6FCE
:10005E00000102030405060708090A0B0C0D0E0F1A
:10006E00010204081020408000000000030005007B
:10007E0076000000F894EE27ECBBF1E0FBBFEBBF7F
:10008E00E5BFF8E1F1BDE1BD8DE0A2E0BB27ED9348
:10009E008A95E9F780E094E0A0E6ED930197E9F701
:1000AE00EAE7F0E085919591009761F0A591B59101
:1000BE0005901590BF01F00105900D920197E1F7A3
:1000CE00FB01F0CFEFE5EDBFE4E0EEBFC0E6D1E01F
:1000DE000C9418011A930E94410110E0103140F463
:1000EE000E945C01ED59FE4FA0E0A0831F5FF6CF8A
:1000FE00199108951A930A93AB81A13110F4A0308F
:10010E0009F424C000E0EA810E1700F5AD81BE812E
:10011E00EAE0F0E00E949A011E2FAD81BE81EAE076
:10012E00F0E00E948701ED83FE83EB810E945F0168
:10013E000E945C01EC5AFF4FE491EC93EB81EF5F70
:10014E00EB83AB81A13110F40F5FDDCFAC81A13118
:10015E0010F4A03009F406C0EC810E945F01EC910E
:10016E00E068EC9319810881279608950E949D01FD
:10017E00A2E6B1E0EC91EF6FEC9320E030E010E0FE
:10018E00103130F40E945C010E9465011F5FF8CFB0
:10019E00E1E6F1E00F01A081E22FE095EA23D00124
:1001AE00EC93E32FF070E095A0916001EA23E093C9
:1001BE0060010E946F0120E030E010E0103170F419
:1001CE000E945C01ED59FE4F0E947601EA2321F058
:1001DE000E945C010E9465011F5FF0CFA1E6B1E0B5
:1001EE00EC91E22BEC93E32FF070A0916001EA2BDF
:1001FE00E0936001E2E6F1E00F010E947601E095E6
:10020E00EA23D001EC93E0917301EF5FE093730169
:10021E00E770E09373010E946F010E94A201249681
:10022E00089558DFE4E65E2EE1E3FBE03F01E4E6ED
:10023E00E515C1F455247A926A92E0E0EA93EAE079
:10024E00EA93E4E0EA9356DFE7EDF0E0FA93EA93FF
:10025E00E0E0EA93E6E0EA93E3E0EA934BDFF301B2
:10026E0031963F0183DF84EC99E00197F1F75394C7
:10027E00DECFFFCFE0EBE7BBE0EFE8BBE2E5EDB9A9
:10028E00E0E0EEB90895C498EA81E150EA83EF5FA9
:10029E0049F0A881B981ED91A883B983EFB9779B15
:1002AE00FECFF2CFC49A23960895E12FF0E0089581
:1002BE00F0E03197ED59FE4FDF010895E25AFF4FFE
:1002CE00E491A1E0B0E00E947E012E2B3F2B089519
:1002DE00E3E0EA93E0E6F1E0FA93EA93D4CFA0816B
:1002EE00E0917301F0E0E259FF4FE4910895EE239F
:1002FE000E2EFD0121F0EE0FFF1F0A94E1F7089577
:10030E000024112490E1AA0FBB1F001C111C0E1A11
:10031E001F0A18F40E0E1F1E01C0A1609A9599F7C0
:10032E00FD01D0010895ECDFFD0108953A932A9363
:10033E001A930A9308953B812A81198108810895A1
:00000001FF
