S00D0000636C6F636B2E737265630B
S11300000C943E000C945B000C945B000C945B001D
S11300100C945B000C945B000C94050D0C945B0039
S11300200C945B000C945B000C945B000C945B00E0
S11300300C945B000C945B000C945B000C945B00D0
S11300400C947E0F0C945B000C945B000C945B008E
S11300500C945B000C945B000C945B000C945B00B0
S11300600C945B000C945B000C94B30B0C945B003D
S11300700C945B000C945B000C945B0011241FBE79
S1130080CFEFD8E0DEBFCDBF11E0A0E0B1E0E8EFF4
S1130090F0E202C005900D92A232B107D9F721E037
S11300A0A2E2B1E001C01D92A93AB207E1F70E94B1
S11300B0990E0C947A100C9400003F937F939F93B5
S11300C0762F7095982F90953AB139233AB93AB171
S11300D037233AB93BB1382B3BB93BB137233BB952
S11300E03AB1362B3AB99F917F913F9108953F934E
S11300F07F939F93762F7095982F90953AB17323A1
S11301007AB93AB1762B382B93233AB99AB97AB99A
S11301109F9189B184237F913F9108953F939F9349
S1130120982F90953BB139233BB93AB1382B3AB962
S11301309F913F910895A1E0B0E0E1EAF0E00C94D2
S11301404910FFB690E8F92219829091220191306A
S113015019F091E09093220190E029E6A22E21E08B
S1130160B22EA80EB91EF501D0808B599E4FFC010A
S1130170C080F894DD2009F4A9C0F50180810E94B3
S11301808E008D2D6C2D0E945D00ED2C80E000E032
S113019010E0812C90E2992E15FF07C090916A011E
S11301A020916901922B11F533C08FB78F298FBF2E
S11301B00000F8948D2D6C2D4E2D0E9477000F5F5A
S11301C01F4F909100019F5F90930001923030F097
S11301D0923021F0933011F0109200018823E1F263
S11301E090916A0120916901922B14C020E0E0FEF5
S11301F009C0E22FF0E0EE0FFF1FE55DFE4F918294
S1130200808201C090FD2F5F9695E694992379F73B
S113021090E0EE242FB72F292FBF109223019923AA
S1130220D1F1EE20C1F12091660130916501232BBB
S1130230582F30E070E060E040E021C050FF18C06B
S113024012C020FF0FC0461761F4E32FF0E0EE0F59
S1130250FF1FE55DFE4F11830083E52FEE7F31F034
S113026008C06F5F2695222361F703C071E001C0C7
S113027090FD4F5F90FD3F5F5695969511F0552385
S1130280E9F6309323018095E82280E07130D1F4BF
S1130290EE20B1F017C090916A0120916901922B70
S11302A099839091230106C0298120FD9F5F2981B4
S11302B02695298329812223B9F79093230102C02B
S11302C000E010E0F894EE2009F066CFF50180819B
S11302D00E948E00109224018FB78F298FBF219620
S11302E0ECE00C946510FF920F931F93CF93DF9370
S11302F08C01EB01FF2404C08F2D0E94CE02F394E5
S113030080914801F816C0F3109244011092430101
S11303101093260100932501CE010E94A105CDB7BB
S1130320DEB7E5E00C946C10FC0180E290E0918370
S113033080831382128280E095E0958384830895FC
S1130340CF93C0E004C08C2F0E94CE02CF5F809177
S11303504801C817C0F3CF9108951092480184E072
S113036080933D0184E18093400195E090934101A5
S113037010923F0180933E01EDE3F1E081E082932E
S113038083E086830E94A60510922A011092290117
S113039008951F93CF93DF931092280110922701A1
S11303A0409143015091440190934401809343014F
S11303B02091450130914601241B350B280F391F2C
S11303C0C0E003C0285C3040CF5F283C3105D0F743
S11303D0309346012093450180914701882341F0E1
S11303E08C1718F41092470103C08C1B80934701AB
S11303F00E94B705E0912901F0912A01309709F094
S1130400099510E0D0E006C08D2F6C2F0E94E30206
S1130410182BDF5F50914801D517B0F3112349F031
S113042080912701909128019160909328018093F5
S1130430270110923B01A9E4B1E040E081E090E0A3
S113044018C02C91287199F0E42FE695E695E6956D
S1130450F0E0E55DFE4F242F2770BC0102C0660F5B
S1130460771F2A95E2F79B013089322B308B4F5F3F
S11304701696451731F78091270190912801DF9155
S1130480CF911F91089590914801A92FB0E0FD01EB
S1130490EE0FFF1FEA0FFB1FEE0FFF1FE75BFE4F80
S11304A04383677085832370660F660F660F262B60
S11304B024839F5F9093480108951F93CF93DF9304
S11304C0C82FD0E0FE01EE0FFF1FEC0FFD1FEE0F53
S11304D0FF1FE75BFE4F9581238130E000903C01D4
S11304E002C0359527950A94E2F7122F243008F4B8
S11304F014E020914801821768F5892F0E948B052A
S1130500412F50E016951695212F30E0241B350B12
S11305102817390764F4FE01EE0FFF1FEC0FFD1FCF
S1130520EE0FFF1FE75BFE4F24812B7F2483509542
S113053041955F4F481759077CF0FE01EE0FFF1FEE
S1130540EC0FFD1FEE0FFF1FE75BFE4F24812460BD
S1130550248302C080E090E0DF91CF911F91089541
S113056090E0FC01EE0FFF1FE80FF91FEE0FFF1FD5
S1130570E75BFE4F258182E0808380912701909183
S11305802801826090932801809327011282E22F30
S1130590F0E0EF59FE4F80E880830895CF93C82F91
S11305A00E94B0028C2F90E0FC01EE0FFF1FE80FB9
S11305B0F91FEE0FFF1FE75BFE4F81E080838FE0A2
S11305C08183CF9108952F923F924F925F926F92C1
S11305D07F928F929F92BF92CF92DF92EF92FF927F
S11305E00F931F93CF93DF930F92CDB7DEB7082FEE
S11305F0162F0E945D024C01C02EDD24B601660F49
S1130600771FFB01EC0DFD1DEE0FFF1FE75BFE4F97
S11306102481438150E0822F837090E00196FA0197
S113062002C0F595E7958A95E2F7CF01E23008F428
S113063082E0DA01A81BB109FB01EC0DFD1DEE0FF0
S1130640FF1FE75BFE4F8081843009F4E4C08530EE
S113065030F4813071F0823009F049C261C08031D8
S113066009F479C1803209F418C2883009F03FC214
S1130670DBC14091270150912801CA0192609093F7
S11306802801809327018581618190E06A3080F0A0
S1130690FC01EE0FFF1FED5CFE4FDC01AA0FBB1F38
S11306A0A55DBE4F8D919C911197918380831DC050
S11306B0DC01AA0FBB1FAD5CBE4F2D913C9111977D
S11306C0FC01EE0FFF1FE55DFE4F808191818217D3
S11306D0930718F42150304005C02817390758F4FF
S11306E02F5F3F4F11963C932E9348605260509376
S11306F02801409327016150F601EE0FFF1FEC0D16
S1130700FD1DEE0FFF1FE75BFE4F6183662319F4A7
S1130710802F0E94B00280913E0180934701DFC187
S113072022FF08C0A581B0E0AF59BE4F1C9280E201
S11307308083CCC1C40197FE02C080E090E084179E
S1130740950768F0F601EE0FFF1FEC0DFD1DEE0F8F
S1130750FF1FE75BFE4F84E080831282C2C1112336
S113076009F4C5C180914701882309F0C0C1F6018D
S1130770EE0FFF1FEC0DFD1DEE0FFF1FE75BFE4F9D
S1130780258130E0D901AA0FBB1FAD5CBE4F8D910E
S11307909C911197F901EE0FFF1FE55DFE4F40811B
S11307A05181F901EF59FE4F8417950768F42081B0
S11307B0210F2083309141013058231708F497C149
S11307C020E82083019610C048175907D0F42081EF
S11307D0211B208330E840914001532F541B5217B2
S11307E008F485C13083019711969C938E93809170
S11307F02701909128018860909328018093270114
S113080076C18081813810F081508083808187FD9A
S11308106EC18F5F4EC1C40197FE02C080E090E0BC
S11308208417950708F447C180913E0180934701DE
S1130830F601EE0FFF1FEC0DFD1DEE0FFF1FE75B32
S1130840FE4F82818F5F8283848190E088739070F1
S1130850A3E096958795AA95E1F7B82E8823D9F554
S11308604EC01017B1F1812F90E01C01220C331CF3
S1130870280E391E220C331C69E471E0260E371E43
S1130880F101848190E08873907053E09695879588
S11308905A95E1F7B816E9F4812F29830E945D0285
S11308A0F1013381AC01431B5109F2018081B40190
S11308B0681B710929816417750714F4F30107C0D3
S11308C0F1018081803111F0883019F4F701108230
S11308D021E01F5F0DC020E010E083E0482E512C82
S11308E04E0E5F1E7F0162E070E0E60EF71E3701D8
S11308F080914801181708F4B4CF222379F4809129
S11309003D01882359F08091270190912801986036
S1130910909328018093270181E001C080E0F601D3
S1130920EE0FFF1FEC0DFD1DEE0FFF1FE75BFE4FEB
S1130930228190913D01291708F4DAC02091270102
S1130940309128012360309328012093270190E1FE
S113095090831182CDC0409127015091280122FF3C
S11309600EC0A581B0E0AF59BE4F80E88C9380E201
S11309708083506150932801409327014DC0C401E6
S113098097FE02C080E090E09601220F331F8A1781
S11309909B0778F42C0D3D1D220F331F275B3E4F20
S11309A088E0F90180838091270190912801946067
S11309B02FC0CA0181609093280180932701F90117
S11309C0EC0DFD1DEE0FFF1FE75BFE4F8281909142
S11309D03D01891710F48F5F828390913F01992321
S11309E0E9F0F601EE0FFF1FEC0DFD1DEE0FFF1FEA
S11309F0E75BFE4F8181891718F4810F81830EC054
S1130A00802F0E94CE02809127019091280192604C
S1130A10909328018093270181E001C080E09091A8
S1130A203E019093470164C080913E018093470149
S1130A308281882309F43FC0C40197FE02C080E08C
S1130A4090E02091270130912801A817B90790F46C
S1130A50F601EE0FFF1FEC0DFD1DEE0FFF1FE75B10
S1130A60FE4F80E180832160309328012093270189
S1130A7080E006C03460309328012093270181E090
S1130A80F601EE0FFF1FEC0DFD1DEE0FFF1FE75BE0
S1130A90FE4F9281915092832BC0A581B0E0AF5953
S1130AA0BE4F8C918F5F8C9322FD09C087FF03C0DA
S1130AB080E180831CC0802F0E94B00218C09091F6
S1130AC04201891770F0802F0E94CE028091270185
S1130AD0909128019061909328018093270181E0EF
S1130AE007C080912701909128019460F4CF80E0A1
S1130AF00F90DF91CF911F910F91FF90EF90DF90B6
S1130B00CF90BF909F908F907F906F905F904F9009
S1130B103F902F90089590E0FC0134962BE231E051
S1130B20EE0FFF1FE20FF31FDC01AA0FBB1FA20F82
S1130B30B31F808191812D913C911197821B930B5E
S1130B400895009711F0FC01099508951092690128
S1130B5010926A01109265011092660110926B0165
S1130B6010926C01109267011092680108958091AF
S1130B706B0190916901892B41F0E0912501F0917D
S1130B802601309711F080E0099580916C019091D5
S1130B906A01892B41F0E0912501F09126013097FB
S1130BA011F081E009950895982F92959F708F70A8
S1130BB0282F30E08AE0989F200D311D1124C901AF
S1130BC00895EF92FF920F931F93CF93DF9304E95D
S1130BD011E07801C0E0D0E007C0CE010E94280CEB
S1130BE0D7018D937D012196C431D105B1F7809150
S1130BF094018F3FA1F484E1E4E9F1E0DF011D9267
S1130C008A95E9F7C0E0D0E007C0F80161918F014F
S1130C10CE010E942F0C2196C431D105B1F7DF918A
S1130C20CF911F910F91FF90EF900895EF92FF9253
S1130C300F931F93CF93DF9364E0869FE001112409
S1130C40CC56DE4F8A8187FF36C09B8191FF33C02B
S1130C5090E020910A0130E02150310902C09595BD
S1130C6087952A95E2F780FF26C0809108010E94AB
S1130C70D4057C01809109010E94D4052CE32E9DAA
S1130C8080012F9D100D1124080F191F88810E94C7
S1130C90D4057C0189810E94D40544ECB701460344
S1130CA09001479F300D1124281B390B200F311F51
S1130CB02C33310514F02FEF3FEFC901DF91CF91B1
S1130CC01F910F91FF90EF900895FF920F931F9340
S1130CD0CF93DF9394E0899FE0011124CC56DE4F3B
S1130CE0FA80F7FC03C02FEF3FEF41C088810E94D8
S1130CF0D4058C0189810E94D4052CE3209FE00156
S1130D00219FD00D1124C80FD91F809108010E9482
S1130D10D4058C01809109010E94D40544EC400360
S1130D209001419F300D1124281B390B2C0F3D1FBE
S1130D3040910A0137FF0FC0473009F440E08F2D7E
S1130D4090E002C0959587954A95E2F780FFCBCF56
S1130D5020563A4F0CC08F2D90E050E0415051097D
S1130D6002C0959587954A95E2F780FFBCCFC901EB
S1130D70DF91CF911F910F91FF900895CF92DF9251
S1130D80EF92FF920F931F93CF93DF9380918C0187
S1130D9087FDC8C080918C018D7F80938C01C7E949
S1130DA0D1E0D12CE12CF12CCC24C3948D2D0E94C4
S1130DB065068C018F309105D1F13CF4009769F000
S1130DC08730910509F058C027C086319105D9F1C3
S1130DD08E31910509F050C040C0888180FF05C064
S1130DE090918C01926090938C0181FF0AC0909144
S1130DF08C01926090938C0190918C0194609093FB
S1130E008C0182FF3FC080916D018823D9F180EF6E
S1130E1090E80E941A0E36C0888182FF08C0809133
S1130E206D01882321F080E090E80E941A0E8881E9
S1130E3082FF22C080916D018823F1F080E790E861
S1130E400E941A0E19C0888182FF19C080916D0119
S1130E508823A9F080EB90E80CC0888182FF0FC042
S1130E60C0926D0180918C01806180938C0180E33C
S1130E7090E80E941A0E03C0101611061CF4EE240A
S1130E80E394F12CD394249685E0D8128FCF8091EB
S1130E908C0181FF0BC080E3DF91CF911F910F91F3
S1130EA0FF90EF90DF90CF900C943D0C80918C01DB
S1130EB082FF23C0C0E08C2F0E9416068830910563
S1130EC051F01CF40497A9F406C08C30910519F074
S1130ED00F9779F404C080918C01826008C08091DE
S1130EE08C01826080938C0180918C018B7F809334
S1130EF08C01CF5FC530F9F615C0EF2829F080E1E9
S1130F000E943D0C80E204C080E20E943D0C80E11E
S1130F10DF91CF911F910F91FF90EF90DF90CF90D1
S1130F200C94390CDF91CF911F910F91FF90EF90AA
S1130F30DF90CF9008958DE08093020186E1809345
S1130F400401E0916E0184E0E89FF0011124EC5665
S1130F50FE4F828190E02091030130E0215031095D
S1130F6002C0959587952A95E2F780FF04C081E039
S1130F70809305010895109205010895809102015E
S1130F80823031F490910301933011F486E109C069
S1130F9090910301993051F4863111F08F5F01C0B3
S1130FA081E0809302011092030108959F5F909362
S1130FB00301089590910401953039F4809105015D
S1130FC0893019F41092040107C080910501893019
S1130FD031F49F5F909304011092050108958F5F8F
S1130FE08093050108951092A80110927C010C943D
S1130FF03E0D80918C0181FF06C080918C018D7F14
S113100080938C0108958091A801863009F47EC0F4
S113101080F4823011F130F48823B9F1813009F081
S1131020F0C049C0843009F47EC0853009F0E9C0BD
S113103084C08C3009F455C038F4873009F468C092
S11310408B3009F0DEC01CC08E3009F4B3C008F444
S11310508BC08F3009F0D5C0CEC09BE09093A8011F
S113106080937D018CE080937C0186E18093020172
S11310709DE09093030190910A0190930401B8C0FC
S1131080809104010E94590BB6C081E08093A801AD
S113109010927D0110926E01809305018FE0809380
S11310A07C018AE08093020180E18093030186E160
S11310B080930401089590910501953048F480913E
S11310C06E018F5F80936E019F5F90930501089579
S11310D010926E0182E08093A8018FE080937C01DE
S11310E08EC086E08093A80183E080937C0182E037
S11310F080937D01E0916E0184E0E89FF00111246A
S1131100EC56FE4F618180810C942B0D87E00CC05E
S11311108DE08093A80188E080937C0182E0809335
S11311207D0181E026C085E08093A8018CE0809356
S11311307C0182E080937D010895809103012091D8
S11311400201233028F490E1299F90011124822B7D
S11311502091040190E1299F9001112460910501DF
S1131160622B0E943C0B47C080910301873028F416
S11311708F5F809303010C949B078EE08093A801FA
S113118088E080937C0184E080937D0185E08093F6
S1131190020181E1809303018DE080930401E091D9
S11311A06E0184E0E89FF0011124EC56FE4F838128
S11311B083701EC08FE08093A80188E080937C0137
S11311C084E080937D0185E08093020183E1809334
S11311D0030181E180930401E0916E0194E0E99FB1
S11311E0F0011124EC56FE4F838182FB882780F99D
S11311F08093050108951092A80110927C010C942B
S11312003E0D089580918C0181FF06C080918C0170
S11312108D7F80938C0108958091A801863009F414
S113122053C088F4823009F448C030F48823F9F0BC
S1131230813009F05CC11EC0843009F489C0853056
S113124009F055C187C08C3009F490C038F4873058
S113125009F467C08B3009F04AC17EC08E3009F4AE
S113126002C108F4B6C08F3009F041C116C181E053
S11312700C944C0D8CE08093A8018FE080937C014A
S113128010927D0196E19093020110920301E09186
S11312906E0124E0E29FF0011124EC56FE4F2281FE
S11312A027FF06C081E1809304019093050108950E
S11312B08093040180930501089584E08093A8013C
S11312C083E080937C0108950E94BE07809102010F
S11312D0E0916E01863151F484E0E89FF00111241D
S11312E0EC56FE4F8091030180830EC094E0E99F89
S11312F0F0011124EC56FE4F20E1829FC00111241D
S113130090910301982B908380916E01E4E08E9F6D
S1131310C00111248C569E4FFC0160818459914078
S1131320E4C00E94DA0780916E0120910401F0E18B
S11313302F9F9001112460910501622B24E0829F6C
S1131340C0011124FC01EC56FE4F61830196CDC00F
S11313500C94BE070C94DA0780910401873010F4D2
S11313608F5F01C081E0809304010895809104019E
S1131370813181F48FE08093040180930501E09131
S11313806E0184E0E89FF0011124EC56FE4F828147
S11313908F7710C081E18093040186E18093050179
S11313A0E0916E0194E0E99FF0011124EC56FE4FA8
S11313B082818068828380916E01E4E08E9FC00107
S11313C01124FC01EC56FE4F628102960E942F0C00
S11313D048C010927D0180910501E0916E01813039
S11313E0C9F41092050124E0E29FF0011124EC56A7
S11313F0FE4F2091030130E02150310981E090E05B
S1131400022E01C0880F0A94EAF7809592818923FD
S1131410828317C081E08093050184E0E89FF00196
S11314201124EC56FE4F2091030130E02150310984
S113143081E090E001C0880F2A95EAF79281982B09
S1131440928380916E01E4E08E9FC0011124FC011F
S1131450EC56FE4F628102960E942F0C82E080932C
S11314607D010C94BE0680910501823019F410921E
S1131470050103C08F5F8093050180916E01F4E044
S11314808F9FC0011124FC01EC56FE4F63816C7FD9
S113149020910501622B638327C080910501E091AF
S11314A06E01813059F41092050124E0E29FF001AD
S11314B01124EC56FE4F83818B7F0BC08F5F80938A
S11314C0050184E0E89FF0011124EC56FE4F83816E
S11314D08460838380916E01E4E08E9FC0011124B7
S11314E0FC01EC56FE4F638103960C942F0C089577
S11314F080918C018D7F80938C01089583E00E94FC
S11315005B0C80918C0182FF0BC080918C018B7FDE
S113151080938C0180E10E943D0C80E20C94390C94
S113152080918C01805880938C0180918C0187FF7D
S113153003C080E30C943D0C0C94BE068091A8017A
S11315408131A1F483E00E945B0C80918C0184FFC3
S113155003C080EA90E802C088E590E80E941A0E71
S113156080918C0190E1892780938C01089580916A
S11315707F00836080937F0000B605FE05C08091E4
S11315808C01886080938C01089580918C0100B651
S113159005FE02C0877F01C0886080938C01089596
S11315A080E28093B8001092B9008FEF8093BB0063
S11315B084E08093BC008091BC0080FDFCCF80ED72
S11315C0809370018EE080937101109272011092E9
S11315D0730184E080936F0188EF8093010185EAB1
S11315E08093BC008091BC0080FDFCCF0895FC0179
S11315F08091BC0080FDFCCF80ED8093700110923F
S1131600710182E080936F0188EF8093010185EA84
S11316108093BC008091BC0080FDFCCF81ED809361
S1131620700185E080936F0188EF8093010185EA62
S11316308093BC008091BC0080FDFCCF80910101AF
S11316408F3FC1F4809172019181981308C09091E9
S1131650730181E02081291303C080E001C081E08F
S11316609091720191839091730190839091740190
S11316709283089580E008959091BC0090FDFCCF82
S113168090ED909370011092710110927201609329
S113169073018093740185E080936F0188EF8093D8
S11316A0010185EA8093BC008091BC0080FDFCCFE1
S11316B008959091BC0090FDFCCF90ED9093700143
S11316C093E0909371018093720190936F0188EF7E
S11316D08093010185EA8093BC008091BC0080FD69
S11316E0FCCF08958091BC0080FDFCCF80ED8093F9
S11316F0700181E18093710182E080936F0188EF32
S11317008093010185EA8093BC008091BC0080FD38
S1131710FCCF81ED8093700183E080936F01809111
S1131720BC0080FDFCCF88EF8093010185EA8093A3
S1131730BC008091BC0080FDFCCF809101018F3FF3
S113174071F42091710184E0289F9001112480910B
S113175072018295869586958370282B02C020E0BD
S113176030E0C90108951F920F920FB60F92112411
S11317702F933F938F939F93EF93FF938091B9009F
S11317808C7F8832C1F040F4803199F0883199F02F
S1131790883009F04DC00DC0803469F120F48833DD
S11317A009F046C043C08035D1F0883509F040C007
S11317B030C0109278018091780190916F0189175F
S11317C080F5E82FF0E0E059FE4F90819093BB0044
S11317D095E89093BC008F5F809378012EC0809130
S11317E07801E82FF0E09091BB00E059FE4F908320
S11317F08F5F8093780180916F012091780130E0B0
S113180090E001972817390714F485EC14C085E893
S113181012C0E0917801F0E08091BB00E059FE4FE6
S113182080838FEF8093010184E905C085EA03C0BA
S11318308093010184E08093BC00FF91EF919F911C
S11318408F913F912F910F900FBE0F901F9018957D
S1131850F999FECF92BD81BDF89A80B50895F894A8
S1131860F999FECF92BD81BD60BDFA9AF99A789438
S1131870089598B1982B98B9089598B180958923C3
S113188088B90895209187013091880140917E01A3
S113189050917F01241B350B253F314058F0209196
S11318A087013091880130937F0120937E0198B1A4
S11318B0982798B9089590917A01916090937A014C
S11318C080937B0108958FEF81B983EF84B980E31E
S11318D087B9EDE6F0E0808184608083E8E6F0E09B
S11318E0808184608083089580917B01882309F13D
S11318F080917B0180FF06C080917A0193E0892763
S113190080937A01809182018F5F80938201843673
S113191081F41092820180917B01869580937B01F2
S113192080917B01811105C080917A018C7F809325
S11319307A0180917A018F7080937A0112B8809134
S11319408C0183FF05C080918001823008F44AC075
S1131950809181018230A1F028F4882349F08130FC
S1131960C1F40AC0833081F0843099F4109281016B
S113197080917A0180680BC080917A01806407C0ED
S113198080917A01806203C080917A0180618093A2
S11319907A0180917C0120918101E22FF0E090E0B6
S11319A0022E02C0959587950A94E2F780FF04C041
S11319B0809179018823B1F0EE5FFE4FE081F0E081
S11319C0E55FFE4F308180917D0190E002C09595E6
S11319D087952A95E2F780FF02C080E101C080E08C
S11319E0832B82B9809180018F5F833018F48093B8
S11319F0800107C010928001809181018F5F8093E4
S1131A00810180917A0185B908951F920F920FB6D2
S1131A100F9211248F939F938091790191E08927EC
S1131A208093790180917901882329F080918C0138
S1131A30816080938C018091A801811105C08091FF
S1131A407901880F80937D019F918F910F900FBE34
S1131A500F901F901895982F92959F7009F496E116
S1131A60909302018F7080930301862F82958F706B
S1131A70809304016F7060930501089588E091E0FC
S1131A800E94F70A60910901809108010E942B0DC0
S1131A9082E080937D01089510927C01882309F4EB
S1131AA054C0809187019091880190938401809320
S1131AB083010E94720B21E12093A80122E020936C
S1131AC07D0191FF17C024E1209302019D7F49E12C
S1131AD0489F9001499F300D11242A30310530F080
S1131AE089E080930301809304012BC0C90168EE4F
S1131AF073E014C049E1489F9001499F300D1124BF
S1131B00C90160E177E20E942F10E8EEF3E0BF0123
S1131B100E942F1060930201C901BF010E942F107F
S1131B20E4E6F0E0BF010E942F1060930301C901B5
S1131B30BF010E942F106AE070E00E942F10609392
S1131B40040185E1809305010895809187019091B6
S1131B5088012091830130918401821B930B813A87
S1131B609F4048F01092A80110927C0182E080937B
S1131B707D010C943E0D0895CF93DF931F92CDB752
S1131B80DEB720918701309188011BC0339A1982F6
S1131B90209185013091860111C0409187015091B7
S1131BA088012417350739F029812B5F2983209177
S1131BB087013091880149814F5F498349814530CC
S1131BC060F330938601209385010197F8F64398DA
S1131BD00F90DF91CF910895CF93DF931F92CDB7EC
S1131BE0DEB72091870130918801309386012093DC
S1131BF0850116C0198211C0409187015091880156
S1131C002417350739F029812B5F29832091870117
S1131C103091880149814F5F49834981453060F3A0
S1131C20019740F730938601209385010F90DF914F
S1131C30CF910895AF92BF92CF92DF92EF92FF922D
S1131C400F931F93CF93DF938C019AE0A92EEE2478
S1131C50E394F12C8EE992E00E94BC0D84E591E0BE
S1131C600E94EC0D8AE290E00E94BC0DB12C47C0AA
S1131C708AE290E00E94EC0D22E0B216E9F083E0E3
S1131C80B81611F121E0C701B21679F00C2E02C08A
S1131C90880F991F0A94E2F780239123892BF9F086
S1131CA084E590E00E94EC0D1AC00C2E02C0880F4F
S1131CB0991F0A94E2F70FC0C7010C2C02C0880FC9
S1131CC0991F0A94E2F7E8CFC7010C2C02C0880FD1
S1131CD0991F0A94E2F780239123892B09F38AE25E
S1131CE090E00E94BC0D219781E0C81AD108C7304A
S1131CF0D10509F0BDCFB39424E0B21631F087E0EA
S1131D00C82ED12CCFE0D0E0B3CF80E99AE10E9475
S1131D10EC0DAA9409F09ECFDF91CF911F910F9102
S1131D20FF90EF90DF90CF90BF90AF9008953B9AD3
S1131D3008950E94C20F0E94700F0E94D40F0E9447
S1131D40630C0E94E1050E94970E0E94B70A7894E2
S1131D500E94D00A1092A80180918C018160809326
S1131D608C010E9416100E94E60E0E943C0F809186
S1131D708C0180FF1CC088E091E00E94F70A882350
S1131D8041F00E94BE068091A801811102C00E9408
S1131D903E0D80918C0181FF03C089E00E945B0CA1
S1131DA00E94C50A80918C018E7F80938C01809162
S1131DB08C01867019F080E20E94420C8091A80187
S1131DC0813179F680E00E944C0DCBCF90913B019C
S1131DD090FD07C091FD08C092FF4AC082E090E0E8
S1131DE005C080E090E002C081E090E020918D0188
S1131DF021110DC091E090938D01209187013091C4
S1131E00880130938F0120938E0180610895409161
S1131E108E0150918F01223099F4209187013091E5
S1131E208801241B350B293C310550F02091870192
S1131E303091880130938F0120938E018062089540
S1131E402091870130918801241B350B2D3D3540AD
S1131E5068F092E090938D01209187013091880180
S1131E6030938F0120938E018064089580E008955B
S1131E7010928D0180E30895CF93C82F882371F1C8
S1131E80807F803299F08034D1F0803139F581E05F
S1131E900E945B0CCF70C13031F070F0C230F1F4AD
S1131EA0CF910C94F907CF910C94780ACF70B1F4C8
S1131EB08091A801882391F0CF910C940209CF70EE
S1131EC0C13049F028F0C23049F4CF910C94F307A3
S1131ED0CF910C949E0ACF910C947E0ACF910895D1
S1131EE08FE387BDEEE6F0E080818260808385B574
S1131EF0836085BD84B5826084BD08951F920F926E
S1131F000FB60F9211242F933F934F935F936F93C8
S1131F107F938F939F93AF93BF93EF93FF9380919E
S1131F208A0190918B01019690938B0180938A0191
S1131F3020910601309107018217930738F010921F
S1131F408B0110928A0181E080938901809187013D
S1131F5090918801019690938801809387010E9453
S1131F60740CFF91EF91BF91AF919F918F917F91ED
S1131F706F915F914F913F912F910F900FBE0F90F2
S1131F801F90189500E80093610000E00093610041
S1131F9000E80093550000E800935500000000009D
S1131FA085B7806185BF089584E5809369011092A7
S1131FB06A0110926B0110926C0188EA80936501AA
S1131FC010926601109267011092680123E047E3C2
S1131FD061E080E00E94430223E047E361E081E0A6
S1131FE00E94430223E047E361E082E00E9443024F
S1131FF060E070E08BE990E00E94730184E08093DC
S11320003D0184E18093400195E090934101109259
S11320103F0180933E0181E080933C018AE08093FC
S1132020420110922A011092290108958091890198
S11320308823A1F0109289018091870190918801F1
S11320400E94C90190939101809390018827917017
S11320509093930180939201892B71F70895AA1BA1
S1132060BB1B51E107C0AA1FBB1FA617B70710F07F
S1132070A61BB70B881F991F5A95A9F780959095B1
S1132080BC01CD0108952F923F924F925F926F92BF
S11320907F928F929F92AF92BF92CF92DF92EF92F4
S11320A0FF920F931F93CF93DF93CDB7DEB7CA1B75
S11320B0DB0B0FB6F894DEBF0FBECDBF09942A88A0
S11320C0398848885F846E847D848C849B84AA8448
S11320D0B984C884DF80EE80FD800C811B81AA81D5
S11320E0B981CE0FD11D0FB6F894DEBF0FBECDBFA0
S10B20F0ED010895F894FFCFFF
S11320F801F8080808083200888801AF84E3E6CCB0
S11321086E6FA4EFEEED4F2BC76B690B454B074081
S1052118E800D9
S9030000FC
