:1000000012C08EC62BC02AC029C028C027C026C057
:100010007AC657C623C0F6C519C620C01FC01EC069
:100020001DC01CC01BC011241FBECFE5D4E0DEBF25
:10003000CDBF10E0A0E6B0E0EAEAF2E102C0059030
:100040000D92A638B107D9F720E0A6E8B0E001C0CC
:100050001D92A33DB207E1F798D625C9D1CFCF9223
:10006000DF92EF92FF920F931F936B017C0120E0D0
:1000700030E040E05FE444D387FD0CC020E030E096
:1000800040E05FE4C701B60193D164D38B019C01CA
:10009000305805C0C701B6015DD38B019C01B80182
:1000A000C9011F910F91FF90EF90DF90CF900895BD
:1000B000A4E0B0E0EDE5F0E0C1C87C016A01FC011C
:1000C0008081823008F44AC1FB019081923008F4AB
:1000D00042C1843079F4943009F040C1F701918134
:1000E000FB018181981709F439C1A2E6EA2EA0E04C
:1000F000FA2E34C1943009F42EC1923091F482303A
:1001000009F02CC188E0F701DA0101900D928A957F
:10011000E1F7FB018181F70191818923FA01818354
:100120001CC1823009F417C1F70182819381FB0160
:10013000A281B381F7010481158126813781FB01FA
:1001400084809580A680B780FC01EA1BFB0BAF0181
:10015000F7FF04C0442755274E1B5F0B4032510563
:100160000CF074C01E161F06B4F524013501042ED0
:1001700004C076946794579447940A94D2F74982BE
:100180005A826B827C82412C512C3201439404C0F0
:10019000440C551C661C771C4A95D2F741E0441A62
:1001A000510861087108482059206A207B20812C61
:1001B000912C5401839445284628472819F4812C12
:1001C000912C540149805A806B807C80842895282A
:1001D000A628B72846C0EF2B09F443C0840F951F0B
:1001E00028013901042E04C07694679457944794EB
:1001F0000A94D2F749825A826B827C82412C512C1C
:100200003201439404C0440C551C661C771C4A956B
:10021000D2F741E0441A5108610871084022512286
:100220006222732201E010E020E030E045284628F9
:10023000472819F400E010E0980149805A806B804B
:100240007C8004291529262937290BC0A817B9074E
:1002500024F4812C912C540104C0CD0100E010E065
:100260009801F7014181FB015181451709F446C00E
:10027000442349F024013501401A510A620A730AE5
:100280009301820104C0081919092A093B0937FDA5
:1002900005C0F6011182938382830CC041E0F60110
:1002A00041839383828330952095109501951F4F4C
:1002B0002F4F3F4F04831583268337830EC0880F4B
:1002C000991FAA1FBB1FF60184839583A683B7835A
:1002D00082819381019793838283F6018481958142
:1002E000A681B781AC01BD01415051096109710975
:1002F0004F3F5F4F6F4F7F4310F30CC0F6014183B8
:1003000093838283080D191D2A1D3B1D04831583C9
:100310002683378383E0F60180834481558166819B
:10032000778177FF1AC0DB01CA0181709927AA275C
:10033000BB277695679557954795842B952BA62BCC
:10034000B72B84839583A683B7838281938101969B
:100350009383828302C07B0101C07601C70124968A
:10036000E0E188C7A0E2B0E0E7EBF1E075C76D8F90
:100370007E8F8F8F98A3298F3A8F4B8F5C8FBE0112
:100380006F5E7F4FCE014D966DD3BE01675F7F4F8D
:10039000CE01499667D3AE014F5F5F4FBE01675FE5
:1003A0007F4FCE01419684DE93D2A096E2E070C7E3
:1003B000A0E2B0E0EDEDF1E04FC76D8F7E8F8F8F43
:1003C00098A3298F3A8F4B8F5C8FBE016F5E7F4F52
:1003D000CE014D9647D3BE01675F7F4FCE01499650
:1003E00041D38A8591E089278A87AE014F5F5F4FAD
:1003F000BE01675F7F4FCE0141965ADE69D2A0965B
:10040000E2E046C7A0E2B0E0E7E0F2E017C76D8F98
:100410007E8F8F8F98A3298F3A8F4B8F5C8FBE0171
:100420006F5E7F4FCE014D961DD3BE01675F7F4F3C
:10043000CE01499617D39989923008F412C0898564
:10044000823008F41AC0943021F4823009F4B4C028
:1004500008C0843021F4923009F4AEC00EC092304E
:1004600051F481E02A899A85291301C080E08A8BA2
:10047000CE014196A3C0823051F481E02A899A8549
:10048000291301C080E08A87CE01099697C08D8824
:100490009E88AF88B88C0D851E852F853889E0E24F
:1004A000F0E080E090E0DC01C12CD12C760140E04E
:1004B00050E0BA0180FE18C0400F511F621F731F29
:1004C0008C0D9D1DAE1DBF1D412C512C320143943E
:1004D000401751076207730718F0412C512C320165
:1004E000840D951DA61DB71DCC0CDD1CEE1CFF1C3C
:1004F00037FF02C06894C0F8000F111F221F331F7E
:10050000B694A794979487943197A1F62B893C8948
:10051000EB85FC852E0F3F1F2E5F3F4F3C832B83C7
:1005200021E0EA893A85E31301C020E02A83EB81C8
:10053000FC810CC080FF05C076956795579547955F
:100540007068B695A795979587953196B7FDF2CFC8
:100550009F010CC0880F991FAA1FBB1F77FD8160E8
:10056000440F551F661F771F215031090097A105C1
:10057000E0E4BE0778F32B833C838C019D010F7769
:10058000112722273327003411052105310559F49D
:1005900087FD09C0452B462B472B29F0805C9F4FD8
:1005A000AF4FBF4F80788D839E83AF83B88783E042
:1005B0008983CE01019602C082E690E089D1A0969F
:1005C000E0E158C6A8E1B0E0E7EEF2E03FC66D8B8F
:1005D0007E8B8F8B988F298B3A8B4B8B5C8BBE01DC
:1005E000675F7F4FCE0145963DD2BE016F5F7F4F63
:1005F000CE01419637D29985923008F475C0898131
:10060000823008F474C02A853A8123272A879430DF
:1006100011F0923019F4981367C06CC0843039F42B
:100620001D861E861F86188A1C861B8604C0823083
:1006300029F484E08987CE0109965EC08B859C856C
:100640002B813C81821B930B9C878B874D855E851C
:100650006F857889CD80DE80EF80F8844C155D054C
:100660006E057F0538F4440F551F661F771F0197ED
:100670009C878B87EFE1F0E000E010E020E030E4C1
:1006800080E090E0DC014C155D056E057F0540F0D3
:10069000802B912BA22BB32B4C195D096E097F097E
:1006A0003695279517950795440F551F661F771F99
:1006B000319749F78C019D010F77112722273327A6
:1006C000003411052105310559F487FD09C0452B7A
:1006D000462B472B29F0805C9F4FAF4FBF4F807850
:1006E0008D879E87AF87B88BCE01099605C0CE0156
:1006F000019602C082E690E0EBD06896E8E0C2C5C1
:10070000A8E1B0E0E5E8F3E0A7C56D8B7E8B8F8BA9
:10071000988F298B3A8B4B8B5C8BBE01675F7F4F29
:10072000CE0145969FD1BE016F5F7F4FCE014196AE
:1007300099D18985823050F08981823038F0BE01AC
:100740006F5F7F4FCE010996FCD101C08FEF689695
:10075000E2E09EC5ACE0B0E0EFEAF3E07BC569877C
:100760007A878B879C87BE016F5F7F4FCE0109968A
:1007700079D18981823091F1823080F1843041F4E5
:100780008A81882331F100E010E020E030E829C0C0
:100790002B813C8137FD22C02F3131058CF78EE152
:1007A00090E0821B930B0D811E812F81388504C040
:1007B00036952795179507958A95D2F78A818823CC
:1007C00081F030952095109501951F4F2F4F3F4F89
:1007D00008C00FEF1FEF2FEF3FE703C000E010E06E
:1007E0009801B801C9012C96E4E050C5A8E0B0E03A
:1007F000EBEFF3E02BC58B019C011A8261157105AB
:100800008105910519F482E089835CC083E08983C6
:100810004EE150E05C834B83C901B801F4D40197E9
:1008200097FF39C0EE27FF27E81BF90B41E050E0A6
:1008300060E070E00E2E04C0440F551F661F771F46
:100840000A94D2F74150510961097109402351239B
:1008500062237323C12CD12C7601C394452B462BE4
:10086000472B19F4C12CD12C760104C0369527955D
:1008700017950795EA95D2F70C291D292E293F29AE
:100880000D831E832F8338872EE130E0281B390B20
:100890003C832B8317C0009729F40D831E832F837D
:1008A000388710C0082E04C0000F111F221F331FED
:1008B0000A94D2F70D831E832F833887481B590B68
:1008C0005C834B83CE01019603D02896E8E0DAC41E
:1008D0000F931F93CF93DF93DC0114964D915D919D
:1008E0006D917C9117971196EC9111978C918230B4
:1008F00020F460618FEF90E0A6C0843009F49EC0C0
:10090000823009F495C0411551056105710509F45E
:1009100092C012962D913C91139722388FEF380791
:100920000CF058C0C2E8DFEFC21BD30BCA31D105AF
:100930006CF58A019B010C2E04C0369527951795FE
:1009400007950A94D2F781E090E0A0E0B0E00C2E89
:1009500004C0880F991FAA1FBB1F0A94D2F70197E2
:10096000A109B10984239523A623B72341E050E0D0
:1009700060E070E0892B8A2B8B2B19F440E050E06B
:10098000BA01402B512B622B732B03C040E050E087
:10099000BA01DB01CA018F779927AA27BB278034C8
:1009A0009105A105B10539F447FF09C0405C5F4FCF
:1009B0006F4F7F4F04C0415C5F4F6F4F7F4F81E0AF
:1009C00090E041155105610520E4720748F580E08B
:1009D00090E026C0203831058CF5DB01CA018F7705
:1009E0009927AA27BB2780349105A105B10539F4C1
:1009F00047FF09C0405C5F4F6F4F7F4F04C0415CB1
:100A00005F4F6F4F7F4F77FD04C0C90181589F4FE3
:100A100007C07695679557954795C90180589F4FB0
:100A200097E076956795579547959A95D1F70BC0BE
:100A300080E090E005C080E090E005C08FEF90E09E
:100A400040E050E0BA01982F9695E0FB97F9362FD9
:100A500080FB37F9642F752F832FDF91CF911F9182
:100A60000F910895CF92DF92EF92DC01FB01CC90C1
:100A70001196DC90119712968C9112973FE7E32E16
:100A8000E8226E2DA60170E0982F991F9927991FD3
:100A900013962C91822F880F892B90E027FB222719
:100AA00020F92183009729F541155105610571054C
:100AB00011F482E027C082E89FEF9383828327E0CE
:100AC000440F551F661F771F2A95D1F783E0808357
:100AD00009C0440F551F661F771F828193810197BC
:100AE0009383828341155105610580E4780788F37B
:100AF00020C08F3F910579F44115510561057105BD
:100B000019F484E0808319C0E4FE03C081E080838F
:100B100010C010820EC08F5791099383828383E0A7
:100B2000808387E0440F551F661F771F8A95D1F792
:100B300070644483558366837783EF90DF90CF9012
:100B40000895CF93FC01DB019081923008F452C0EC
:100B50008C91823008F44EC0943071F4843039F4B2
:100B600011962C9130E08181281B310948C0818188
:100B7000882309F43FC03BC0843029F411968C913E
:100B8000811138C034C0923019F48230B9F735C0C1
:100B9000823069F3C18111968C911197C8131DC0E1
:100BA0002281338112968D919C911397821793071E
:100BB0000CF413C0281739070CF417C04481558171
:100BC0006681778114968D919D910D90BC91A02D99
:100BD00084179507A607B70718F4C11108C00AC003
:100BE000481759076A077B0740F4C11103C02FEF6C
:100BF0003FEF05C021E030E002C020E030E0C90155
:100C0000CF9108951F920F920FB60F9211242F9338
:100C10008F939F93EF93FF93E091D1008E2F8F5F7F
:100C20008F719CB12091D000821731F0F0E0E05537
:100C3000FF4F90838093D100FF91EF919F918F910F
:100C40002F910F900FBE0F901F9018951F920F922B
:100C50000FB60F9211248F939F93EF93FF93809180
:100C6000D20090918F00891759F0E82FF0E0E057FB
:100C7000FF4F90819CB98F5F8F718093D20001C02C
:100C80005598FF91EF919F918F910F900FBE0F900C
:100C90001F901895E0918F009E2F9F5F9F7120916C
:100CA000D200921739F0F0E0E057FF4F8083909325
:100CB0008F00559A089587E689B910BC88E98AB9EA
:100CC00008951F920F920FB60F9211248F939F9346
:100CD00080918600813069F412BE1DBC1CBC969ABE
:100CE00095E39A95F1F7000096988EBD10928600D4
:100CF00003C081E0809386009F918F910F900FBE7B
:100D00000F901F9018951F920F920FB60F921124FB
:100D10001EBC1DBC1CBC0F900FBE0F901F901895E1
:100D20001F920F920FB60F9211242F933F934F9360
:100D30005F936F937F938F939F93AF93BF93EF9343
:100D4000FF93829B09C02CB53DB58299FECF8CB52F
:100D50009DB5821B930B02C080E090E0879B2FD053
:100D60009093610080936000FF91EF91BF91AF91EC
:100D70009F918F917F916F915F914F913F912F91B3
:100D80000F900FBE0F901F9018954CD0CCD093DFD2
:100D90007894609160007091610080E0C7D180918B
:100DA000610078DF8091600075DF2FEF81EE94E0C5
:100DB000215080409040E1F700C00000EACFCF937F
:100DC000DF93A9E8B0E04D915C91119750938800B2
:100DD00040938700CBE8D0E0E881F981ED93FC9364
:100DE000ADE8B0E02D913C911197398328838D9324
:100DF0009C9360E070E04E0F5F1F611D711D420FFC
:100E0000531F611D711D480F591F611D711D82E027
:100E100076956795579547958A95D1F7CA01DF91E1
:100E2000CF91089518BA8FE387BB84E882BB80E432
:100E300081BB95E093BF12BE1FBC1EBC1DBC1CBC79
:100E400017BC16BC1BBC1ABC19BC18BC12BC15BC08
:100E500014BC13BC8BBF23E025BF8ABF99BF1AB84F
:100E600080E888B910BE16B81DB816BE8FE39CE99D
:100E70000197F1F700C000000895611102C0C09809
:100E800001C0C09A87FF02C0C59A01C0C59886FFFD
:100E900002C0C49A01C0C49885FF02C0C39A01C0B1
:100EA000C39884FF02C0C29A01C0C298E7ECF0E088
:100EB0003197F1F700C00000C19AE7ECF0E03197FC
:100EC000F1F700C00000C198E7ECF0E03197F1F7CE
:100ED00000C0000083FF02C0C59A01C0C59882FF10
:100EE00002C0C49A01C0C49881FF02C0C39A01C065
:100EF000C39880FF02C0C29A01C0C29887EC90E0FC
:100F00000197F1F700C00000C19AE7ECF0E03197DB
:100F1000F1F700C00000C19887EC90E00197F1F76D
:100F200000C000000895C29AC39AC19A2FEF89EFBA
:100F300090E0215080409040E1F700C00000C1984F
:100F40002FEF89EF90E0215080409040E1F700C002
:100F50000000C19A2FEF89EF90E02150804090402F
:100F6000E1F700C00000C1982FEF89EF90E0215019
:100F700080409040E1F700C00000C19A2FEF89EF58
:100F800090E0215080409040E1F700C00000C198FF
:100F90002FEF89EF90E0215080409040E1F700C0B2
:100FA0000000C2988FE39CE90197F1F700C00000B0
:100FB000C19A9FEF29EF80E0915020408040E1F7F7
:100FC00000C00000C1989FEF29EF80E091502040C1
:100FD0008040E1F700C0000060E088E24EDF60E0A2
:100FE0008CE04BDF60E086E048DF60E081E045DFD9
:100FF0008FE39CE90197F1F700C00000089561E0DC
:101000003CCFCF93DF93C82FD62F813029F4C62F42
:10101000C15860E08C2F31DFC23031F460E08D2F99
:101020008154DF91CF9129CFDF91CF9108951F9304
:10103000CF93DF93EC0110E003C061E01EDF1F5F80
:10104000FE01E10FF11D80818111F7CFDF91CF917A
:101050001F9108958150893030F4E82FF0E0E6596F
:10106000FF4F8081089580E308958F929F92AF9201
:10107000BF92CF92DF92EF92FF920F931F93CF9385
:10108000DF93CDB7DEB729970FB6F894DEBF0FBE5A
:10109000CDBFAA24A394B12CAC0EBD1E25E0F50152
:1010A00011922A95E9F78E010E5F1F4F4E01F6E06F
:1010B0008F0E911C4AE0C42ED12CE12CF12CA701FB
:1010C00096017FD0862F2E833F8348875987C2DFC2
:1010D000F80181938F012E81622F3F81732F488504
:1010E000842F5985952FE815F90549F78E010A5F78
:1010F0001F4FFFEFAF1ABF0AF80182918F017FDF08
:101100000A151B05C9F729960FB6F894DEBF0FBE66
:10111000CDBFDF91CF911F910F91FF90EF90DF90A6
:10112000CF90BF90AF909F908F900895FF920F93B4
:101130001F93CF93DF93F82E80E090E057DB8B0175
:10114000D82FC92F63E081E05CDFF11003C083E793
:1011500090E06DDF64E082E054DF20E030E44CE1B9
:1011600056E4FE01602F712F8F2F9C2F4BD920E06A
:1011700030E048E652E426DA8B01D82FC92F20E070
:1011800030E44CE156E4FE01712F8F2F9E2F1ADAC6
:1011900066D780E090E069DF80E890E048DF9E015C
:1011A000602F712F832F922F5AD75FDF6EE082E07E
:1011B00028DF82E890E0DF91CF911F910F91FF909F
:1011C00036CFA1E21A2EAA1BBB1BFD010DC0AA1F20
:1011D000BB1FEE1FFF1FA217B307E407F50720F0A0
:1011E000A21BB30BE40BF50B661F771F881F991F1B
:1011F0001A9469F760957095809590959B01AC0164
:10120000BD01CF01089506D084FF0895CB0102D01F
:10121000805F0895AA27992329F4A85F982B11F4D9
:1012200080E10895903118F4AD5F9295A395990FE0
:10123000E8F78A2F992708952F923F924F925F9255
:101240006F927F928F929F92AF92BF92CF92DF92D6
:10125000EF92FF920F931F93CF93DF93CDB7DEB73B
:10126000CA1BDB0B0FB6F894DEBF0FBECDBF0994CF
:101270002A88398848885F846E847D848C849B8426
:10128000AA84B984C884DF80EE80FD800C811B8134
:10129000AA81B981CE0FD11D0FB6F894DEBF0FBE63
:0A12A000CDBFED010895F894FFCFD3
:1012AA00681A00000000000000003132333435367D
:1012BA00373839202044697374616E7365202000C1
:0612CA002C00636D000022
:00000001FF
