:1000000017C0FECFFDCFFCCFFBCFFACFF9CFF8CF93
:10001000F7CFF6CFF5CFF4CFF3CFF2CFF1CF00008B
:1000200000000000000000000A0002001E000000A6
:10003000F894EE27ECBBE5BFF8E1A895A4B7A77F3D
:10004000A4BFF1BDE1BD8DE0A2E0ED938A95E9F793
:1000500080E8A0E6ED938A95E9F7E8E2F0E0859183
:100060009591009761F0A591B59105901590BF010C
:10007000F00105900D920197E1F7FB01F0CFE0E070
:10008000E1BBE2BBE3BBEFEDEDBFC0E81CC0A88164
:10009000A130B8F0E2E3F0E05F010A2C0B2869F030
:1000A000C09B02C0C09801C0C09A88E592E0019749
:1000B000F1F7F50131975F01F0CFE881E150E88376
:1000C000E6CF21960895E0E8E6BDE0E0E6BDECE18C
:1000D000E8BBE3E0E7BBE3E2EABDE3E0E3BFE0E087
:1000E000E2BFE9BDE8BDE7BDE0BFECBDEFBDEEBDE1
:1000F000EBBDEDBDEBBFE5BFE9BFEDB9E0E8E8B9A9
:10010000E0E0E3B9E4BBE4B3E370E4BBE4B3E4BB35
:10011000E0E0E7B9E6E8E6B9E3B1EF75E3B95BD053
:10012000A0E0B0E09AD04E2E55242414350420F4DB
:1001300055D028BC57D0F9CF5AD0B3991CC04ED057
:1001400059D081F048D063D02F012414350448F4ED
:1001500045D05DD0E215F30510F459D01F015AD0F7
:10016000F4CF45D054D02E163F0610F050D058D0C2
:1001700039D028BCE2CFB49920C0F10131971F01DA
:1001800039D091F028D055D02F014214530458F49F
:10019000F10131971F014DD04E165F0610F449D082
:1001A0002F0138D0F2CF23D044D02E163F0610F4C2
:1001B00040D036D017D028BCDECFA0E0B0E04DD084
:1001C000D101F0E0EA17FB0721F0E22DA0E0B0E05A
:1001D0004FD0B3CFFFCFEFE0EA9359CFF101319683
:1001E0001F010895EAE0F0E0FA93EA9325C0E4E005
:1001F000EA934DCFA0E0B399A1E0E0E029D00E2E24
:10020000A0E0B499A1E0E0E023D0E0210895EEEF72
:10021000F0E0089528BCE8E2F0E0FA93EA930CC01D
:100220001F01E1E0EA9333DFE8ECF0E0FA93EA93B0
:1002300003C0E1E0F0E00895E991F991309639F0DA
:1002400080ED97E00197F1F7A8953197C9F70895E8
:10025000EA17E1E009F0EE270895E199FECFFF9358
:10026000FFB7F894AEBBE09AEDB3FFBFFF910895DE
:10027000E19B02C0A895FCCF9FB7F894AEBBE09A73
:100280008DB3E81719F0EDBBE29AE19A9FBF08958C
:00000001FF
