:1000000012C021C020C01FC01EC01DC01CC01BC00C
:100010001AC019C018C017C016C015C014C013C02C
:1000200012C011C010C011241FBECFE5D4E0DEBF46
:10003000CDBF10E0A0E6B0E001C01D92A336B1072D
:10004000E1F72CD393C3DCCFDF93CF9300D000D064
:10005000CDB7DEB79C838B838B819C819A83898308
:1000600005C089819A8101979A83898389819A81C0
:100070000097B9F70F900F900F900F90CF91DF91ED
:100080000895DF93CF9300D0CDB7DEB78A838A81FE
:10009000837F8860898382E390E02981FC0120834B
:1000A000000082E390E02981277FFC0120838A8180
:1000B0008295807F837F8860898382E390E02981B5
:1000C000FC012083000082E390E02981277FFC016E
:1000D000208384E690E0B8DF0F900F90CF91DF91FE
:1000E0000895DF93CF9300D0CDB7DEB78A838A819E
:1000F0008C60898382E390E02981FC0120830000E9
:1001000082E390E02981277FFC0120838A81829508
:10011000807F8C60898382E390E02981FC012083C9
:10012000000082E390E02981277FFC0120838AE0A0
:1001300090E08ADF0F900F90CF91DF910895DF93C9
:10014000CF93CDB7DEB78CE09CDF88EE93E07CDF09
:100150008CE297DF88EE93E077DF81E092DF88EE34
:1001600093E072DFCF91DF9108950F931F93DF9398
:10017000CF93CDB7DEB727970FB6F894DEBF0FBE8B
:10018000CDBF87E390E027E330E0F90120812160D3
:10019000FC0120838BED91E09B838A838A819B8184
:1001A0008C01C8010197F1F78C011B830A8387E357
:1001B00090E027E330E0F90120812E7FFC012083CD
:1001C00081E490E09D838C838C819D818C01C801AA
:1001D0000197F1F78C011D830C8386E390E0FC010D
:1001E0008081882F90E081709070009719F481E0F1
:1001F000898301C0198285E991E09F838E838E8176
:100200009F818C01C8010197F1F78C011F830E8338
:10021000898127960FB6F894DEBF0FBECDBFCF9170
:10022000DF911F910F9108950F931F93DF93CF9349
:10023000CDB7DEB72B970FB6F894DEBF0FBECDBF9C
:100240008B878B858A83198266C08A81882F90E08C
:1002500081709070882369F187E390E027E330E0B4
:10026000F90120812160FC01208382E090E09C83E1
:100270008B838B819C818C01C8010197F1F78C01E4
:100280001C830B8387E390E027E330E0F9012081B2
:100290002E7FFC0120838CE390E09E838D838D81F3
:1002A0009E818C01C8010197F1F78C011E830D839B
:1002B0002CC087E390E027E330E0F9012081216042
:1002C000FC01208387E390E098878F838F81988556
:1002D0008C01C8010197F1F78C0118870F8387E320
:1002E00090E027E330E0F90120812E7FFC0120839C
:1002F00082E090E09A87898789859A858C01C80178
:100300000197F1F78C011A8709878A8186958A837C
:1003100089818F5F89838981883008F496CF2B96F5
:100320000FB6F894DEBF0FBECDBFCF91DF911F9106
:100330000F9108950F931F93DF93CF9300D000D0B8
:1003400000D0CDB7DEB710926200198273C087E388
:1003500090E027E330E0F90120812160FC01208357
:1003600082E090E09B838A838A819B818C01C80113
:100370000197F1F78C011B830A8387E390E027E361
:1003800030E0F90120812E7FFC01208386E08C8300
:100390008C81182F1A95F1F71C8386E390E0FC01FD
:1003A0008081882F90E0817090700097C1F48981DE
:1003B000282F30E081E090E002C0880F991F2A9535
:1003C000E2F7809590959C0180916000909161008A
:1003D0008223932390936100809360001BC08981E6
:1003E000282F30E081E090E002C0880F991F2A9505
:1003F000E2F79C018091600090916100822B932B29
:10040000909361008093600089818C3019F481E0C1
:100410008093620082E390E09E838D838D819E8134
:100420008C01C8010197F1F78C011E830D8389812E
:100430008F5F89838981803108F489CF26960FB632
:10044000F894DEBF0FBECDBFCF91DF911F910F910A
:100450000895DF93CF93CDB7DEB727970FB6F89403
:10046000DEBF0FBECDBF1A8219821C821B8267DEDF
:1004700084E537DE85E635DE8DE633DE80E731DE86
:100480008EE22FDE8DE32DDE80916200813071F4EB
:100490008091600090916100909581959F4F90931D
:1004A0006100809360008DE21CDE02C080E219DEF4
:1004B00080916000909161008F7090709A83898321
:1004C0008091600090916100929582958F7089274C
:1004D0009F7089279C838B838B819C8124E630E0ED
:1004E000B90130D19B01C9018D838D81482F50E026
:1004F0002CE93FEF429FC001439F900D529F900D0A
:1005000011249C018B819C81820F931F2AE030E093
:10051000B90118D19B01C9018E839D818CE9989FF7
:10052000902D11248E81880F282F220F220F820FE9
:100530008195980F8B81890F8F838D81882319F086
:100540008D81805DCEDD8E81882319F08E81805D66
:10055000C8DD8F81805DC5DD8EE2C3DD89819A8132
:10056000009719F480E3BDDD65C089819A818130EF
:10057000910529F089819A818230910519F481E3EE
:10058000B0DD58C089819A818330910519F482E3E6
:10059000A8DD50C089819A818430910529F0898134
:1005A0009A818530910519F483E39BDD43C08981ED
:1005B0009A818630910529F089819A818730910549
:1005C00019F484E38EDD36C089819A8188309105E3
:1005D00019F485E386DD2EC089819A8189309105E1
:1005E00029F089819A818A30910519F486E379DDB1
:1005F00021C089819A818B30910519F487E371DDDF
:1006000019C089819A818C30910529F089819A815C
:100610008D30910519F488E364DD0CC089819A81DD
:100620008E30910529F089819A818F30910511F4DE
:1006300089E357DD8FED55DD83E453DD27960FB653
:10064000F894DEBF0FBECDBFCF91DF910895DF9349
:10065000CF930F92CDB7DEB772DD8EE442DD8FE629
:1006600040DD80E23EDD83E73CDD85E63ADD8EE677
:1006700038DD83E736DD8FE634DD82E732DD19824F
:1006800006C080E09DE7E0DC89818F5F89838981F6
:100690008930B8F30F90CF91DF910895DF93CF9316
:1006A0000F92CDB7DEB781E390E02CEFFC01208301
:1006B00088E390E028E330E0F90120812E7FFC01FF
:1006C000208387E390E027E330E0F90120812E7F4B
:1006D000FC01208380E09DE7B7DC80E09DE7B4DC8F
:1006E00080E09DE7B1DC80E09DE7AEDC198207C0C9
:1006F00026DD88EC90E0A8DC89818F5F8983898181
:100700008530B0F332DD8130D9F48CEC8DDD84E4BA
:100710008BDD198206C080E09DE796DC89818F5FC2
:10072000898389818630B8F320DD882311F48FDF37
:10073000E9CF8CEC79DD8EEB77DDFCDD8ADEE2CF74
:1007400086DFE0CFAA1BBB1B51E107C0AA1FBB1F5E
:10075000A617B70710F0A61BB70B881F991F5A954D
:10076000A9F780959095BC01CD010895F894FFCF2D
:00000001FF
