:1000000009C016C015C014C013C012C011C079C0F9
:100010000FC00EC011241FBECFE9CDBF20E0A0E667
:10002000B0E001C01D92A337B207E1F732D0C3C0E0
:10003000E7CF8830B0F4E82FF0E0E05AFF4F60835C
:100040009091700021E030E0082E01C0220F0A9448
:10005000EAF7662311F0292B02C02095292320936B
:1000600070000895C29887E090E02091710030E020
:10007000082E02C0359527950A94E2F720FF02C0AA
:10008000C19A01C0C198C09AC098019770F7C29AEE
:10009000089587B3876087BB88B3887F88BB8FB597
:1000A00082608FBD82E083BF87E786BF89B78860A3
:1000B00089BF7894C0E011C0D0E06D2F8C2FB9DFDC
:1000C0008FED9EE20197F1F700C00000DF5FD536AB
:1000D000A1F7CF5F02C0C0E0EFCFC8306CF3D0E033
:1000E0000EC06C2F8D2FA5DF8FED9EE20197F1F7EB
:1000F00000C00000C150A8F7DF5FD83061F3C4E64C
:10010000F0CF1F920F920FB60F9211242F933F93AF
:100110004F935F936F937F938F939F93AF93BF930F
:10012000CF93DF93EF93FF93709172006091710012
:10013000A8E6B0E0FD0180E090E021E030E05191E0
:1001400075130AC0E901082E02C0CC0FDD1F0A9406
:10015000E2F7AE014095642301968830910579F766
:1001600060937100743671F4E0E6F0E081918D9354
:10017000D0E0E836FD07D1F7109272008091700050
:1001800080937100809172008F5F809372006ADFAC
:10019000FF91EF91DF91CF91BF91AF919F918F919F
:1001A0007F916F915F914F913F912F910F900FBE73
:0A01B0000F901F901895F894FFCFF0
:00000001FF
