:1000000009C0FECFFDCFFCCFFBCFFACFF9CFF8CFA1
:10001000F7CFF6CFF894EE27ECBBE5BFF8E1A4B735
:10002000A77FA4BFF1BDE1BD8DE0A2E0ED938A956D
:10003000E9F780E4A0E6ED938A95E9F7EFE9EDBFF3
:10004000C0E787C0AA9360D1A881A13019F4C198F4
:10005000C29A02C0C198C298C19A56D178C0AA93D8
:10006000A881A13011F4C09A01C0C09870C050D1CD
:1000700058D159D1A981EA2311F0C29A01C0C2987E
:1000800055D10030B1F7C198C298C19AA1E0E7DF1D
:100090000881229608953CD14CD1A981A13031F438
:1000A00040D13FD13ED13DD1A0E005C03AD139D1B8
:1000B00040D13FD1A1E0C6DF3CD135D1AC81EA23AC
:1000C00011F0C29A01C0C29831D10030B1F700E8F6
:1000D0002AD1AB81EA2311F0C29A01C0C29826D17D
:1000E0000030B1F700E81FD1AA81EA2311F0C29ACB
:1000F00001C0C2981BD10030B1F7A981A13039F4F9
:1001000010D10FD116D115D10CD1A0E00EC009D15C
:1001100010D107D106D105D104D103D102D109D123
:1001200008D107D1FED005D1A1E08CDF02D1F9D0F2
:10013000A1E095DF088125960895AA93E881E7B9A3
:10014000E3D0369A349BFECF349AE4B1F5B12196D0
:100150000895E0E8E6BDE0E0E6BDE8BBB89AB99AEC
:10016000BA9AE4B3E370E4BBE4B3E4BBE0E0E7B91C
:10017000E3EAE6B9E3B1E87FE3B9A1E070DFA8E222
:1001800076DFA1E074DFA3E072DFA2E0D4D0A5E0C7
:10019000B0E0D7D0E0937000F0937100D9D0A2E323
:1001A000B0E0CFD0D8D0E0937200F0937300D0D0FD
:1001B000A4EFB1E0C6D0CFD0E0937400F093750007
:1001C000A3E0B9D0A4EFB1E0BCD0CBD0E0937600EF
:1001D000F0937700BDD0A8E8B3E1B3D0BCD0C1D0D4
:1001E000E0937800F0937900B3D0A0E5B3ECA9D008
:1001F000B2D0B7D0E0937A00F0937B006624E6E0BB
:10020000E61509F464C0B4D0F7D0E630A0E0FA07F0
:1002100021F4AED0EAEFF0E0B0D0AAD0EDD0E130DA
:10022000A0E0FA0721F4A4D0E6E0F0E0A6D0A0D048
:10023000E3D0E230A0E0FA0721F49AD0ECE7F0E056
:100240009CD096D0D9D0E330A0E0FA0721F490D02A
:10025000EEE5F0E092D08CD0CFD0E430A0E0FA0709
:1002600021F486D0E6ECF0E088D082D0C5D0E5302D
:10027000A0E0FA0721F47CD0EAEDF0E07ED078D05F
:10028000BBD0E730A0E0FA0721F472D0EEE0F0E056
:1002900074D06ED0B1D0E830A0E0FA0721F468D075
:1002A000EEEFF0E06AD064D0A7D0E930A0E0FA0722
:1002B00021F45ED0EEEDF0E060D05AD09DD03097C2
:1002C00021F456D0EEEBF0E058D0639498CFA4EF31
:1002D000B1E056D0E0917000EA93E0917200E160E5
:1002E000EA93E0917400EA93A1E0D5DEE091760014
:1002F000E160EA93E0917800EA93E0917A00EA9372
:10030000A2E0C9DE42CFFFCF83E08A95F1F70895DE
:10031000AA930A9300E8A0E0A2DEA1E093DEA0E0A9
:1003200091CEA0E08FCEC198E02F08950695C19A96
:10033000EBCFA1E087CE01DF44B055B0E42DF52D21
:10034000089531D0AE2FBF2FEFEFF3E03CD00895EA
:10035000E42DF52D0895AE2FBF2FEAE0F0E048D050
:10036000089518D0AE2FBF2FEAE0F0E02CD008950A
:10037000E62DA0E7EE0FAE0F0895ED93FC930895E0
:10038000109639F08AEF90E00197F1F7A895119750
:10039000C9F70895EE0FFF1FEE0FFF1FEE0FFF1FAF
:1003A000EE0FFF1F08950A2E1B2E81E1AA27BB1B0B
:1003B00005C010F4A00DB11DB695A795F795E7956A
:1003C0008A95B9F708950024112490E1AA0FBB1F64
:1003D000001C111C0E1A1F0A18F40E0E1F1E01C05D
:1003E000A1609A9599F7EA2FFB2FA02DB12D0895C2
:1003F000EADFEA2FFB2F0895ED91FC91AA9508956D
:00000001FF
