:040000000BEF32F0E0
:10641600000EF86E00018CEF34F09398939A939CDB
:10642600939E8A908A84000E0E6E0A0E0D6E01D01F
:1064360000D00D06D8A00E060D28D8B40E28D8A474
:1064460001D001D0F6D700D00CC001F0FDEC32F03F
:1064560012009398939A939C939E8A908A94000E26
:106466000E6E0A0E0D6E01D000D00D06D8A00E06D7
:106476000D28D8B40E28D8A401D001D0F6D700D064
:106486000CC001F0FDEC32F012000F6E000E116E22
:106496000F503F0E116401D001D002D044D043D03A
:1064A600200E116001D001D00CD0115080090C6E65
:1064B6002CEC32F00F6E800E0C6E0F502CEC32F07E
:1064C6000DD01150E00F80090C6E2CEC32F00F6EDF
:1064D600880E0C6E0F502CEC32F000D00F6E000EB2
:1064E600106E0F50070E106401D001D002D014D0E8
:1064F60013D00F6E000E0C6E0F5010EC32F00F6EB4
:10650600000E0C6E0F5010EC32F0102A070E1064BD
:1065160001D001D0EED700D0112A3F0E116401D070
:1065260001D0BED700D012009398939A939C939E65
:106536008A908A8601C002F0023A0F0E0216010EF8
:106546000216023A8A500218EF0B02188A6E01C030
:1065560002F0050E036ED8900232032EFCD7010E10
:106566000216023A02468A500218DF0B02188A6E99
:1065760001C002F0060E036ED8900232032EFCD73D
:10658600010E0216023A024602468A500218BF0B54
:1065960002188A6E026A01AE01D0022A010E0216A4
:1065A600023202328A5002187F0B02188A6E000EDF
:1065B600056E320E046E01D000D00406D8A0050682
:1065C6000428D8B40528D8A401D001D0F6D78A96D5
:1065D600010E076E180E066E01D000D00606D8A072
:1065E60007060628D8B40728D8A401D001D0F6D7C4
:1065F60000D012009398939A939C939E8A908A86D1
:1066060001C002F0023A0F0E0216010E0216023AFD
:106616008A500218EF0B02188A6E01C002F0050EAE
:10662600036ED8900232032EFCD7010E0216023AF0
:1066360002468A500218DF0B02188A6E01C002F069
:10664600060E036ED8900232032EFCD7010E0216F8
:10665600023A024602468A500218BF0B02188A6E98
:10666600026A01AE01D0022A010E0216023202327D
:106676008A5002187F0B02188A6E000E056E0A0EEB
:10668600046E01D000D00406D8A005060428D8B4AC
:106696000528D8A401D001D0F6D78A96000E076E39
:1066A6000A0E066E01D000D00606D8A007060628F8
:1066B600D8B40728D8A401D001D0F6D78A8601C05D
:1066C60002F0010E0216023A8A500218EF0B021867
:1066D6008A6E01C002F0D8900232010E0216023A0A
:1066E60002468A500218DF0B02188A6E01C002F0B9
:1066F600D8900232D8900232010E0216023A0246B1
:1067060002468A500218BF0B02188A6E01C002F0B8
:10671600D8900232D8900232D8900232010E021678
:10672600023202328A5002187F0B02188A6E000E5D
:10673600096E0A0E086E01D000D00806D8A0090618
:106746000828D8B40928D8A401D001D0F6D78A964B
:10675600000E0B6E0A0E0A6E01D000D00A06D8A0F3
:106766000B060A28D8B40B28D8A401D001D0F6D736
:1067760000D01200116E000E176E11503F0E1764F6
:1067860001D001D002D0C4D0C3D0200E176001D0F2
:1067960001D05BD0116E000E186E1150070E1864F2
:1067A60001D001D002D0ADD0ACD0175080090C6E0C
:1067B6002CEC32F0185080090C6E2CEC32F018508C
:1067C600020DF3CF11F0F4CF12F01750100DF35065
:1067D6001124136EF4501220146E13500F24156EEC
:1067E60014501020166E15C0F6FF16C0F7FF0800ED
:1067F600F5CF0CF010EC32F01850020DF3CF11F07B
:10680600F4CF12F01750100DF3501124136EF450FC
:106816001220146E010E1326000E142213500F249C
:10682600156E14501020166E15C0F6FF16C0F7FF31
:106836000800F5CF0CF010EC32F0182A070E186499
:1068460001D001D0B2D75DD05CD0116E000E186EAB
:106856001150070E186401D001D002D052D051D089
:106866001750E00F80090C6E2CEC32F01850880996
:106876000C6E2CEC32F01850020DF3CF11F0F4CF61
:1068860012F01750100DF3501124136EF45012200D
:10689600146E13500F24156E14501020166E15C06A
:1068A600F6FF16C0F7FF0800F5CF0CF010EC32F03B
:1068B6001850020DF3CF11F0F4CF12F01750100D4F
:1068C600F3501124136EF4501220146E010E132689
:1068D600000E142213500F24156E14501020166E3D
:1068E60015C0F6FF16C0F7FF0800F5CF0CF010EC48
:1068F60032F0182A070E186401D001D0B1D701D0A2
:1069060000D0172A3F0E176401D001D03ED700D021
:106916001200000E926E000E936E010E946E000E23
:10692600806E000E816E000E826E000E896E000E65
:106936008A6E000E8B6E89EC35F048EC32F000D092
:10694600346E000E0F6E3450356E000E106E3550DC
:10695600366E300E116E365095EC38F0346E000EF1
:106966000F6E3450356E010E106E3550366E310E88
:10697600116E365095EC38F0346E000E0F6E3450B2
:10698600356E020E106E3550366E320E116E365062
:1069960095EC38F0346E000E0F6E3450356E030EE3
:1069A600106E3550366E330E116E365095EC38F04B
:1069B600346E000E0F6E3450356E040E106E355068
:1069C600366E340E116E365095EC38F0346E000E7D
:1069D6000F6E3450356E050E106E3550366E350E10
:1069E600116E365095EC38F0346E000E0F6E345042
:1069F600356E060E106E3550366E360E116E3650EA
:106A060095EC38F0346E000E0F6E3450356E070E6E
:106A1600106E3550366E370E116E365095EC38F0D6
:106A2600346E040E0F6E34507F0E116ED30E106E40
:106A3600FAEC36F0346E050E0F6E34507F0E116E82
:106A4600E40E106EFAEC36F0346E060E0F6E34500D
:106A56007F0E116EC20E106EFAEC36F0346E070E13
:106A66000F6E34507F0E116EF30E106EFAEC36F088
:106A7600030E386EE80E376E12D0030E3A6E3E0ED7
:106A8600396E01D000D03906D8A03A063928D8B4D4
:106A96003A28D8A401D001D0F6D701D000D03706C5
:106AA600D8A038063728D8B43828D8A401D001D0C1
:106AB600E4D700D07B0E106EC20E0F6EBDEC33F025
:106AC600030E3C6EE80E3B6E12D0030E3E6E3E0E7B
:106AD6003D6E01D000D03D06D8A03E063D28D8B474
:106AE6003E28D8A401D001D0F6D701D000D03B066D
:106AF600D8A03C063B28D8B43C28D8A401D001D065
:106B0600E4D71ED71DD71CD700EF00F08A828A92E1
:106B1600000E116E050E106E12D0030E136E3E0E91
:106B2600126E01D000D01206D8A013061228D8B4CF
:106B36001328D8A401D001D0F6D701D000D0100672
:106B4600D8A011061028D8B41128D8A401D001D095
:106B5600E4D78A82000E156EC80E146E01D000D0DE
:106B66001406D8A015061428D8B41528D8A401D020
:106B760001D0F6D700D00F6E300E016E0F5097EC95
:106B860032F0000E176E050E166E12D0030E196E39
:106B96003E0E186E01D000D01806D8A01906182887
:106BA600D8B41928D8A401D001D0F6D701D000D086
:106BB6001606D8A017061628D8B41728D8A401D0C8
:106BC60001D0E4D700D00F6E200E016E0F5097EC67
:106BD60032F0000E1B6EC80E1A6E01D000D01A06D7
:106BE600D8A01B061A28D8B41B28D8A401D001D0D7
:106BF600F6D700D00F6E200E0C6E0F502CEC32F034
:106C0600000E1D6E640E1C6E01D000D01C06D8A0AE
:106C16001D061C28D8B41D28D8A401D001D0F6D74B
:106C260000D00F6E0C0E0C6E0F502CEC32F0000ED6
:106C36001F6EC80E1E6E01D000D01E06D8A01F06FD
:106C46001E28D8B41F28D8A401D001D0F6D700D06A
:106C56000F6E010E0C6E0F502CEC32F0000E216EF2
:106C66000F0E206E12D0030E236E3E0E226E01D042
:106C760000D02206D8A023062228D8B42328D8A4D8
:106C860001D001D0F6D701D000D02006D8A0210629
:106C96002028D8B42128D8A401D001D0E4D700D028
:106CA6000F6E060E0C6E0F502CEC32F0000E256E99
:106CB600C80E246E01D000D02406D8A025062428AC
:106CC600D8B42528D8A401D001D0F6D700D00F6EAD
:106CD600020E0C6E0F502CEC32F0000E276EC80E12
:106CE600266E01D000D02606D8A027062628D8B4BE
:106CF6002728D8A401D001D0F6D700D00F6E200ED9
:106D06000C6E0F502CEC32F0000E296E010E286E20
:106D160012D0030E2B6E3E0E2A6E01D000D02A062C
:106D2600D8A02B062A28D8B42B28D8A401D001D065
:106D3600F6D701D000D02806D8A029062828D8B42E
:106D46002928D8A401D001D0E4D700D00F6E240E94
:106D56000C6E0F502CEC32F0000E2D6E010E2C6EC8
:106D660012D0030E2F6E3E0E2E6E01D000D02E06D0
:106D7600D8A02F062E28D8B42F28D8A401D001D009
:106D8600F6D701D000D02C06D8A02D062C28D8B4D2
:106D96002D28D8A401D001D0E4D700D00F6E260E3E
:106DA6000C6E0F502CEC32F0000E316E010E306E70
:106DB60012D0030E336E3E0E326E01D000D0320674
:106DC600D8A033063228D8B43328D8A401D001D0AD
:106DD600F6D701D000D03006D8A031063028D8B476
:106DE6003128D8A401D001D0E4D700D01200126E09
:106DF600000E206E1250126E010E1F6E125080D1C0
:106E060010C0F6FF11C0F7FF0800F5CF21F0104AB9
:106E1600112A216601D001D009D0126E200E216EF2
:106E26001250126E000E1F6E125000D010C0F6FFE8
:106E360011C0F7FF0800F5CF22F0104A112A22668A
:106E460001D001D009D0126E200E226E1250126EA1
:106E5600000E1F6E125000D02150E00F256E2250FA
:106E6600E00F266E2550050DA20EF324F66E740E65
:106E7600F420F76E0800F5CF19F02550050D010E28
:106E8600F326000EF422A20EF324F66E740EF420FE
:106E9600F76E0800F5CF18F02550050D020EF32603
:106EA600000EF422A20EF324F66E740EF420F76E92
:106EB6000800F5CF17F02550050D030EF326000E3A
:106EC600F422A20EF324F66E740EF420F76E080078
:106ED600F5CF16F02550050D040EF326000EF4220C
:106EE600A20EF324F66E740EF420F76E0800F5CFAA
:106EF60015F02650050DA20EF324F66E740EF4203E
:106F0600F76E0800F5CF1EF02650050D010EF3268C
:106F1600000EF422A20EF324F66E740EF420F76E21
:106F26000800F5CF1DF02650050D020EF326000EC3
:106F3600F422A20EF324F66E740EF420F76E080007
:106F4600F5CF1CF02650050D030EF326000EF42295
:106F5600A20EF324F66E740EF420F76E0800F5CF39
:106F66001BF02650050D040EF326000EF422A20E89
:106F7600F324F66E740EF420F76E0800F5CF1AF0BF
:106F8600126E000E276E1250070E276401D001D034
:106F960002D0B4D0B3D0040E0F6001D001D00ED011
:106FA6000F50080DF350272480090C6E2CEC32F09C
:106FB600205080090C6E2CEC32F00FD00F38E842CE
:106FC600F80B2724E00F80090C6E2CEC32F02050D1
:106FD60088090C6E2CEC32F000D0126E000E236E77
:106FE6001250126E000E286E1250040E286401D044
:106FF60001D002D033D032D02850010D150EF32423
:10700600D96EDA6A000EDA22DF50126E27C013F04C
:10701600010E146E132A02D0D8901436132EFCD704
:10702600145012140009D8B401D001D010D028C0D1
:1070360012F0030E1226010E136E122A02D0D890F9
:107046001336122EFCD713502310236E00D0282A95
:10705600040E286401D001D0CFD700D0126E000EE6
:10706600246E1250126E000E286E1250040E286402
:1070760001D001D002D033D032D02850010D1A0EE3
:10708600F324D96EDA6A000EDA22DF50126E27C0B8
:1070960013F0010E146E132A02D0D8901436132E54
:1070A600FCD7145012140009D8B401D001D010D066
:1070B60028C012F0030E1226010E136E122A02D0F9
:1070C600D8901336122EFCD713502410246E00D0FD
:1070D600282A040E286401D001D0CFD700D023C0BF
:1070E6000CF010EC32F024C00CF010EC32F0272A31
:1070F600070E276401D001D04ED700D0202A00D039
:1071060010C0F6FF11C0F7FF0800F5500009D8B40B
:1071160001D001D006D01F6601D001D071D601D0B2
:1071260000D01200126E000E196E12500FC018F029
:107136009DD1126E000E176E1250070E176401D005
:1071460001D002D091D190D1040E186001D001D0A7
:107156000ED01850080DF350172480090C6E2CEC35
:1071660032F0105080090C6E2CEC32F050D11838E9
:10717600E842F80B1724E00F80090C6E2CEC32F075
:10718600105088090C6E2CEC32F041D140D11950C8
:10719600010D020EF324F66EF76A790EF722080047
:1071A600F5CF0CF010EC32F019C012F0010E1226D9
:1071B600020E1224F66EF76A790EF7220800F5CF52
:1071C6000CF010EC32F046D11950010D420EF324AA
:1071D600F66EF76A790EF7220800F5CF0CF010EC80
:1071E60032F019C012F0010E1226420E1224F66E6B
:1071F600F76A790EF7220800F5CF0CF010EC32F0A2
:1072060029D11950010D820EF324F66EF76A790E14
:10721600F7220800F5CF0CF010EC32F019C012F08E
:10722600010E1226820E1224F66EF76A790EF722E6
:107236000800F5CF0CF010EC32F00CD11950010D0E
:10724600C20EF324F66EF76A790EF7220800F5CF20
:107256000CF010EC32F019C012F0010E1226C20E1C
:107266001224F66EF76A790EF7220800F5CF0CF0B5
:1072760010EC32F0EFD01950010D020EF324F66E29
:10728600F76A7A0EF7220800F5CF0CF010EC32F010
:1072960019C012F0010E1226020E1224F66EF76ABB
:1072A6007A0EF7220800F5CF0CF010EC32F0D2D0AF
:1072B6001950010D420EF324F66EF76A7A0EF72284
:1072C6000800F5CF0CF010EC32F019C012F0010EE8
:1072D6001226420E1224F66EF76A7A0EF72208007C
:1072E600F5CF0CF010EC32F0B5D01950010D820E2E
:1072F600F324F66EF76A7A0EF7220800F5CF0CF043
:1073060010EC32F019C012F0010E1226820E122471
:10731600F66EF76A7A0EF7220800F5CF0CF010EC3D
:1073260032F098D01950010DC20EF324F66EF76AAA
:107336007A0EF7220800F5CF0CF010EC32F019C0E7
:1073460012F0010E1226C20E1224F66EF76A7A0E9B
:10735600F7220800F5CF0CF010EC32F07BD0195074
:10736600010D020EF324F66EF76A7B0EF722080073
:10737600F5CF0CF010EC32F019C012F0010E122607
:10738600020E1224F66EF76A7B0EF7220800F5CF7E
:107396000CF010EC32F05ED01950010D420EF324C1
:1073A600F66EF76A7B0EF7220800F5CF0CF010ECAC
:1073B60032F019C012F0010E1226420E1224F66E99
:1073C600F76A7B0EF7220800F5CF0CF010EC32F0CE
:1073D60041D01950010D820EF324F66EF76A7B0E2A
:1073E600F7220800F5CF0CF010EC32F019C012F0BD
:1073F600010E1226820E1224F66EF76A7B0EF72213
:107406000800F5CF0CF010EC32F024D023D0115048
:10741600300AD8B4BCD6010AD8B4D6D6030AD8B432
:10742600F0D6010AD8B40AD7070AD8B424D7010A75
:10743600D8B43ED7030AD8B458D7010AD8B472D7FD
:107446000F0AD8B48CD7010AD8B4A6D7030AD8B481
:10745600C0D700D01950020F196E172A070E1764ED
:1074660001D001D071D600D0182A00D00F50126E6C
:10747600136A040E1226000E13221850146E156A93
:107486001550800A166E1250145C1350800A165856
:10749600D8A001D001D04DD600D0120000000000C7
:1074A6000000005F00000007000700147F147F142F
:1074B600242A7F2A12231308646236495522500073
:1074C60005030000001C2241000041221C00140894
:1074D6003E081408083E0808005030000008080856
:1074E6000808006060000020100804023E5149456B
:1074F6003E00427F400042615149462141454B31A1
:107506001814127F1027454545393C4A4949300130
:10751600710905033649494936064949291E003687
:1075260036000000563600000814224100141414D8
:107536001414004122140802015109063249794106
:107546003E7E1111117E7F494949363E4141412215
:107556007F4141221C7F494949417F090909013E72
:107566004149497A7F0808087F00417F4100204051
:10757600413F017F081422417F404040407F020C7A
:10758600027F7F0408107F3E4141413E7F09090981
:10759600063E4151215E7F0919294646494949312E
:1075A60001017F01013F4040403F1F2040201F3F17
:1075B6004038403F63140814630708700807615198
:1075C600494543007F414100020408102000414123
:1075D6007F000402010204404040404000010204D2
:1075E6000020545454787F48444438384444442056
:1075F600384444487F3854545418087E0901020C14
:107606005252523E7F0804047800447D40002040D8
:10761600443D007F1028440000417F40007C041850
:1076260004787C0804047838444444387C141414E0
:1076360008081414187C7C08040408485454542080
:10764600043F4440203C4040207C1C2040201C3C01
:107656004030403C44281028440C5050503C446470
:10766600544C44000836410000007F0000004136BB
:107676000800100808100878464146781EA1A16146
:10768600123A4040207A38545655182155555579A6
:1076960021545454793C4043237C20545555780C4E
:1076A6001E52721239555555593954545459395533
:1076B6005454580000457C410002457D4200014576
:1076C6007C40791412147978141514787C54564534
:1076D600442054547C547C0A097F49324949493232
:1076E6003248484832324A4848303A4141217A3A8B
:1076F60042402078009DA0A07D39444444393D4055
:1077060040403D04057E0504043F4542212B2FFCE5
:107716002F2BFF0929F62030494A49202054565577
:107726007800447E410038444645383C4042217C3E
:10773600007A0A0A727D0D19317D4465564D44045E
:1077460065564D4030484540203808080808080866
:107756000808382F10C8ACBA384546454400007BA7
:10776600000008142A142222142A1408AA0055001C
:10777600AAAA55AA55AA55AA55AA55000000FF005F
:10778600101010FF0070282629701010FF00FF7CD3
:1077960055564544141414FC001414F700FF000059
:1077A600FF00FF1414F404FC141417101F10101F0C
:1077B600101F1414141F00101010F0007E11111168
:1077C6007E7F494949337F494949367F0101010393
:1077D600E0514F41FF7F4949494977087F0877497A
:1077E600494949367F1008047F7C2112097C7F08AD
:1077F60014224120413F017F7F020C027F7F08084F
:10780600087F3E4141413E7F0101017F7F09090911
:10781600063E4141412201017F0101274848483F78
:107826001C227F221C63140814637F404040FF071C
:107836000808087F7F407F407F7F407F40FF017FB1
:107846004848307F4830007F7F4848300022414911
:10785600493E7F083E413E462919097F205454542B
:10786600783C4A4A49317C545428007C0404040C70
:10787600E0544C44FC38545454086C107C106C444E
:10788600445454287C2010087C78422412787C10BA
:1078960028440020443C047C7C0810087C7C1010A2
:1078A600107C38444444387C0404047C7C1414144E
:1078B60008384444444404047C04040C5050503CAE
:1078C60018247E241844281028447C404040FC0C90
:1078D6001010107C7C407C407C7C407C40FC047C0E
:1078E6005050207C5020007C7C505020002844546E
:1078F60054387C10384438085434147C00007FFE19
:107906007FFE7FFE700E700E700E700E700E700E83
:10791600700E700E700E700E700E700E700E700E71
:10792600700E700E700E700E700E700E700E700E61
:10793600700E7FFE7FFE7FFE000000000000000E3E
:10794600000E000E000E000E000E000E000E000EC1
:10795600000E000E000E000E000E000E000E000EB1
:10796600000E000E000E000E000E000E000E000EA1
:10797600000E000E000E000E0000000000007FFE4C
:107986007FFE7FFE000E000E000E000E000E000EA3
:10799600000E000E000E000E7FFE7FFE7FFE7000C2
:1079A6007000700070007000700070007000700051
:1079B60070007FFE7FFE7FFE0000000000007FFE5D
:1079C6007FFE7FFE000E000E000E000E000E000E63
:1079D600000E000E000E000E7FFE7FFE7FFE000EE4
:1079E600000E000E000E000E000E000E000E000E21
:1079F600000E7FFE7FFE7FFE000000000000700E7E
:107A0600700E700E700E700E700E700E700E700E80
:107A1600700E700E700E700E7FFE7FFE7FFE000EE3
:107A2600000E000E000E000E000E000E000E000EE0
:107A3600000E000E000E000E0000000000007FFE8B
:107A46007FFE7FFE70007000700070007000700096
:107A560070007000700070007FFE7FFE7FFE000EDB
:107A6600000E000E000E000E000E000E000E000EA0
:107A7600000E7FFE7FFE7FFE0000000000007FFEFE
:107A86007FFE7FFE70007000700070007000700056
:107A960070007000700070007FFE7FFE7FFE700E2B
:107AA600700E700E700E700E700E700E700E700EE0
:107AB600700E7FFE7FFE7FFE0000000000007FFE4E
:107AC6007FFE7FFE000E000E000E000E000E000E62
:107AD600000E000E000E000E000E000E000E000E30
:107AE600000E000E000E000E000E000E000E000E20
:107AF600000E000E000E000E0000000000007FFECB
:107B06007FFE7FFE700E700E700E700E700E700E81
:107B1600700E700E700E700E7FFE7FFE7FFE700E72
:107B2600700E700E700E700E700E700E700E700E5F
:107B3600700E7FFE7FFE7FFE0000000000007FFECD
:107B46007FFE7FFE700E700E700E700E700E700E41
:107B5600700E700E700E700E7FFE7FFE7FFE000EA2
:107B6600000E000E000E000E000E000E000E000E9F
:107B7600000E7FFE7FFE7FFE00000000000000007A
:107B860000000000000000000380038003800380E3
:107B960003800380000000000000000000000000D9
:107BA60000000380038003800380038003800000BD
:107BB60000000000000000000000000000000000BF
:107BC60000000000000000000000000000000000AF
:107BD600000000000000000000000000000000009F
:107BE600000000000000000000000000000000008F
:107BF600000000000000000000000000000000007F
:107C0600000000000000000000000000000000006E
:107C1600000000000000000000000000000000005E
:107C2600000000000000000000000000000000004E
:107C3600000000000000000000000000000000003E
:107C4600000000000000000000000000000000002E
:107C5600000000000000000000000000000000001E
:107C6600000000000000000000000000000000000E
:107C760000000000000000000000000000000000FE
:107C860000000000000000000000000000000000EE
:107C960000000000000000000000000000000000DE
:107CA60000000000000000000000000000000000CE
:107CB60000000000000000000000000000000000BE
:107CC600000000000000000000000000001FF0009F
:107CD600000000000000000000000000007FFC0023
:107CE60000000000000000000000000001FFFE0090
:107CF60000000000000000000000000003FFFF007D
:107D06000000000000000000000000000FFFFF0060
:107D16000000000000000000000000000FFFFF80D0
:107D26000600800000000000000000001F8FF1C068
:107D36000781E00000000000000000003F0FE1C0E6
:107D46000781E00000000000000000003F03C0E0E3
:107D56000783E61FC7F03F03F18119FC7E03C0E0ED
:107D66000787E73FEFFC7FCFF983BBFE7C018030BE
:107D76000FC7E77FEFFCFFCFF983BBFF7E01C03063
:107D86000FE7E77FEFFCFFCFF983BBFF7300C01C53
:107D96000EE667700E0CC0CC01C3BB837300E01CFB
:107DA6000EEE67700E0CC0CC01FFBB836180700EB7
:107DB6000E7E67700FFCC0CC01FFBBFF61C0300EAA
:107DC6000E7E67700FF8C0CC01FFBBFF40C03807BE
:107DD6001E7C67700FFCC0CC0183BBFF00E01C0358
:107DE6001E7C677FEE0CFFCFF983BB8000700C0210
:107DF6001E38777FEE0CFFCFF983BB8000F00C00B6
:107E06001C10773FEE0CFFCFF983BB8000F81F00F4
:107E160000000000000000000000000001F81F0044
:107E260000000000000000000000000003FC3F808E
:107E360000000000000000000000000003FC3F807E
:107E46000000000000000000000000000FFFFFC05F
:107E560000000000000000000000000007FFFFC057
:107E660000000000000000000000000003FFFF808B
:107E760000000000000000000000000000FFFF00FE
:107E8600000000000000000000000000003FF800B5
:107E9600000000000000000000000000000FF000DD
:107EA60000000000000000000000000000000000CC
:107EB60000000000000000000000000000000000BC
:107EC60000000000000000000000000000000000AC
:107ED600000000000000000000000000000000009C
:107EE600000000000000000000000000000000008C
:107EF600000000000000000000000000000000007C
:107F0600000000000000000000000000000000006B
:107F1600000000000000000000000000000000005B
:107F2600000000000000000000000000000000004B
:107F3600000000000000000000000000000000003B
:107F4600000000000000000000000000000000002B
:107F5600000000000000000000000000000000001B
:107F6600000000000000000000000000000000000B
:107F760000000000000000000000000000000000FB
:107F860000000000000000000000000000000000EB
:107F960000000000000000000000000000000000DB
:107FA60000000000000000000000000000000000CB
:107FB6000000000000000000000000002140232413
:107FC600255E262A28295F2B7C2D3D2F00546573BC
:107FD60074204C696E652041424344454600D2E513
:107FE600F1F2EEE2E0FF20EBE8EDE8FF003132339C
:0A7FF600343536373839300000000A
:020000040030CA
:0600010002121E008381C3
:060008000FC00FE00F40E5
:00000001FF
