:100000001CC0FECFFDCFFCCFFBCFFACF45C0F8CF51
:10001000F7CFF6CFF5CFF4CFF3CFF2CFF1CFF0CFCC
:10002000EFCFEECFEDCF01002D4E414E00494E46B1
:1000300000000100700126000000F894EE27ECBBE0
:10004000F1E0FBBFEBBFE5BFF8E1F1BDE1BD8DE045
:10005000A2E0BB27ED938A95E9F780E094E0A0E663
:10006000ED930197E9F7E2E3F0E085919591009730
:1000700061F0A591B59105901590BF01F001059033
:100080000D920197E1F7FB01F0CFEFE5EDBFE4E062
:10009000EEBFC0E6D1E045C0EA93FA93EFB7EA932A
:1000A000E52DF0E0E05AFE4FE081E3BD5394EFE030
:1000B000E51508F45524E991EFBFF991E9911895F8
:1000C0002497EBEDE883EFE0E983E9ECEA83EEE3E4
:1000D000EB831A9310E0E12FF0E0E05AFE4FFF931C
:1000E000EF93E12FFF276627772793D1A981BA8164
:1000F0008B819C8118D2E2D282D0A0E0B0E080E86F
:100100009FE3C1D1A0E0B0E08EEF92E40CD248D1E1
:10011000AF91BF91EC931F5F1031E9F618812596DE
:100120000895E0E0E8BBE8E0E7BBE0E0E5BBE4BB66
:10013000E2BBE1BBEFBDE8E0EEBDE0E0F0E0FDBD1D
:10014000ECBDF7BDE6BDE8EEF3E0FBBDEABDE0E0E7
:10015000F0E0F9BDE8BDE2BDE8E6E5BDE0E0E4BD04
:10016000E0E8E3BDE0E1E9BFE0E8E8B97894A8DFC2
:10017000E5B5E160E5BDEEB5E160EEBDFFCFFFCFD7
:100180007B816A81F981E88177FB770F67FD716078
:10019000972F9E5781F078F0983190F4AA27BB27CB
:1001A000882708948795B795A7959A95D1F7EA235C
:1001B000FB23682305C0E8947727EE27FF276627EF
:1001C0006F77769508F4606877F9A991B99189916C
:1001D0009991EA17FB076807790797FB089564D29E
:1001E0006DD2CEDF66D211F45FD207C0EEF75CD2DB
:1001F000A0E0B0E080E89FE33FD1249608952497E3
:100200001A9310E0AD81BE818F819885E3E8F9EF04
:1002100062E27EE388D1ED83FE836F8378874ED2DE
:10022000DEDFAD81BE818F8198854DD225D1ED83F2
:10023000FE836F837887AD81BE818F819885E0E0F2
:10024000F0E060E07FE302D209F008F40EC0ED8137
:10025000FE816F817885A0E0B0E080E09FE30CD163
:10026000ED83FE836F83788711E0AD81BE818F813E
:100270009885E0E0F0E060E87EE3E8D109F008F47A
:1002800009C0E0E0F0E060E07FE3F6D0ED83FE83BC
:100290006F837887103049F0ED81FE816F8178851A
:1002A0004CD0ED83FE836F837887ED81FE816F8173
:1002B0007885AD81BE818F81988535D1E983FA83B8
:1002C0006B837C83A1EBB4EC86E292E42CD1DF015A
:1002D000CB01EDE1F5EE6DE272E4F5D1CDD0A9816F
:1002E000BA818B819C811FD1ACE4B3E584E091E4B9
:1002F000CAD0AD81BE818F81988515D17F936F93D0
:10030000FF93EF93E981FA816B817C81A1E1BDEEDE
:100310008EED9FE3B8D0A981BA818B819C8103D1F6
:10032000AEE5BBE788EA9FE3AED0AF91BF918F9176
:100330009F9147D118812996089530976040704069
:1003400009F070580895552342F4503811F4E0FF35
:1003500004C03196691F791F6BF050E8572711F4DC
:100360005F93CFC05F3F31F0660F000C57956795E4
:10037000752F08955F9300200AF0CFC0C8C050E8E1
:10038000192E1522880F991F9527550F879550E82C
:10039000072E0522660F771F7527550F679508955D
:1003A000689401C0E8945F93F2DF703818F07F3FE3
:1003B00008F4A7C056E1571BAAF4519558300EF423
:1003C000593030F0EFEFFFEF6FEF7FE777F91AC0AA
:1003D00077275523B9F0EE0FFF1F661F771F5A9539
:1003E000D1F710C07727583028F0EF2FF62F672F5E
:1003F0005850F9CF552331F076956795F795E795E5
:100400005A95D1F700200AF441D15F91089568947C
:1004100001C0E894309760407040B1F0002426F0AD
:10042000772312F4009432D1172E7EE1112032F09E
:100430007A95EE0FFF1F661F111CF9CFEF2FF62FD5
:10044000612D5F938ADF5F9108954F93AF01FD01A6
:10045000DA01AB01BC01CA01402D012C142E4F91D1
:100460000895EA0FFB1F681F0895E095F0956095C9
:10047000EF5FFF4F6F4F08955F9381DF903871F109
:1004800050E8152604C05F937ADF903839F1703850
:1004900021F1572F591B2BF112F4D7DFFACF583126
:1004A00018F0AA27BB278827583028F0AB2FB82F81
:1004B00088275850F9CF552329F08695B795A795E9
:1004C0005A95D9F7502D512572F0CBDF38F4679546
:1004D000F795E795739513F420C0B7DF3EDF5F9182
:1004E0000895D8F7FBCFEA1BFB0B680B51F010F413
:1004F0000094BBDF662392F3EE0FFF1F661F7A9511
:10050000CBF7EE27FF27662777275F910895EFEF58
:10051000FFEF6FE77FEF5F910895EFEFFFEF6FE77A
:100520007FE75F9108955F932ADF703851F3903829
:1005300041F301240894791F23F41CF300203AF3BB
:10054000ECCF0F921F932F933F934F9311272227A6
:100550009927689FA0018F9F302D410D591F6B9FD8
:10056000300D411D591F8E9F27D0BF9F25D06A9FF8
:1005700023D0BE9F1DD0AF9F1BD0AE9F110D291F52
:10058000391F491F591FE32FF42F652F522F4F9109
:100590003F912F911F910F9066232AF0550FEE1F68
:1005A000FF1F661F02C073954BF2CDDE5F91089569
:1005B000100D211D391F02C0200D311D491F591F6B
:1005C00008955F93DCDE703821F411200AF49FCF88
:1005D000A4CF903809F495CF01240894970B1BF40D
:1005E000D4F30020F3CF792F1F932F933F934F9392
:1005F00011241127222733274427552790E2AE17CD
:10060000BF078607410730F0AE1BBF0B860B410BBF
:10061000089401C08894551F221F331F111CAA1F64
:10062000BB1F881F441F9A9551F7F901612D4F9107
:100630003F912F911F91662332F0550FEE1FFF1F40
:10064000661F7A9543F27FDE5F91089599239AF0B1
:10065000772342F0971748F029F4AE17BF078607B3
:1006600020F031F09894889408959894089408950F
:100670001894889408957723C2F7971798F3A9F7E9
:10068000EA17FB07680788F399F3ECCFF0956095BC
:100690007095E195FF4F6F4F7F4F0895FE2FFF0F2D
:1006A000FF0B6F2F7F2F0895E881F9816A817B818D
:1006B0000895E883F9836A837B8308957A936A9324
:1006C000FA93EA930895182E862F612D192E972FED
:1006D000712D1B2EBF2FF12D1A2EAE2FE12D089557
:00000001FF
