S00F00004D5F535F455F502E73726563C3
S113000012C02CC02BC02AC045C728C027C026C098
S1130010EBC624C023C01BC83EC820C01FC01EC0DE
S11300201DC01CC01BC011241FBECFE5D4E0DEBF21
S1130030CDBF10E0A0E6B0E0E4E3F2E102C0059039
S11300400D92A637B107D9F721E0A6E7B0E001C0C9
S11300501D92A030B207E1F753D7EAC8D1CFCF92AF
S1130060DF92EF92FF920F931F936B017C0120E0CC
S113007030E040E05FE444D387FD0CC020E030E092
S113008040E05FE4C701B60193D164D38B019C01C6
S1130090305805C0C701B6015DD38B019C01B8017E
S11300A0C9011F910F91FF90EF90DF90CF900895B9
S11300B0A4E0B0E0EDE5F0E086C87C016A01FC0153
S11300C08081823008F44AC1FB019081923008F4A7
S11300D042C1843079F4943009F040C1F701918130
S11300E0FB018181981709F439C1ADE6EA2EA0E03D
S11300F0FA2E34C1943009F42EC1923091F4823036
S113010009F02CC188E0F701DA0101900D928A957B
S1130110E1F7FB018181F70191818923FA01818350
S11301201CC1823009F417C1F70182819381FB015C
S1130130A281B381F7010481158126813781FB01F6
S113014084809580A680B780FC01EA1BFB0BAF017D
S1130150F7FF04C0442755274E1B5F0B403251055F
S11301600CF074C01E161F06B4F524013501042ECC
S113017004C076946794579447940A94D2F74982BA
S11301805A826B827C82412C512C3201439404C0EC
S1130190440C551C661C771C4A95D2F741E0441A5E
S11301A0510861087108482059206A207B20812C5D
S11301B0912C5401839445284628472819F4812C0E
S11301C0912C540149805A806B807C808428952826
S11301D0A628B72846C0EF2B09F443C0840F951F07
S11301E028013901042E04C07694679457944794E7
S11301F00A94D2F749825A826B827C82412C512C18
S11302003201439404C0440C551C661C771C4A9567
S1130210D2F741E0441A5108610871084022512282
S11302206222732201E010E020E030E045284628F5
S1130230472819F400E010E0980149805A806B8047
S11302407C8004291529262937290BC0A817B9074A
S113025024F4812C912C540104C0CD0100E010E061
S11302609801F7014181FB015181451709F446C00A
S1130270442349F024013501401A510A620A730AE1
S11302809301820104C0081919092A093B0937FDA1
S113029005C0F6011182938382830CC041E0F6010C
S11302A041839383828330952095109501951F4F48
S11302B02F4F3F4F04831583268337830EC0880F47
S11302C0991FAA1FBB1FF60184839583A683B78356
S11302D082819381019793838283F601848195813E
S11302E0A681B781AC01BD01415051096109710971
S11302F04F3F5F4F6F4F7F4310F30CC0F6014183B4
S113030093838283080D191D2A1D3B1D04831583C5
S11303102683378383E0F601808344815581668197
S1130320778177FF1AC0DB01CA0181709927AA2758
S1130330BB277695679557954795842B952BA62BC8
S1130340B72B84839583A683B78382819381019697
S11303509383828302C07B0101C07601C701249686
S1130360E0E14DC7A0E2B0E0E7EBF1E03AC76D8F02
S11303707E8F8F8F98A3298F3A8F4B8F5C8FBE010E
S11303806F5E7F4FCE014D966DD3BE01675F7F4F89
S1130390CE01499667D3AE014F5F5F4FBE01675FE1
S11303A07F4FCE01419684DE93D2A096E2E035C71A
S11303B0A0E2B0E0EDEDF1E014C76D8F7E8F8F8F7A
S11303C098A3298F3A8F4B8F5C8FBE016F5E7F4F4E
S11303D0CE014D9647D3BE01675F7F4FCE0149964C
S11303E041D38A8591E089278A87AE014F5F5F4FA9
S11303F0BE01675F7F4FCE0141965ADE69D2A09657
S1130400E2E00BC7A0E2B0E0E7E0F2E0DCC66D8F0B
S11304107E8F8F8F98A3298F3A8F4B8F5C8FBE016D
S11304206F5E7F4FCE014D961DD3BE01675F7F4F38
S1130430CE01499617D39989923008F412C0898560
S1130440823008F41AC0943021F4823009F4B4C024
S113045008C0843021F4923009F4AEC00EC092304A
S113046051F481E02A899A85291301C080E08A8B9E
S1130470CE014196A3C0823051F481E02A899A8545
S1130480291301C080E08A87CE01099697C08D8820
S11304909E88AF88B88C0D851E852F853889E0E24B
S11304A0F0E080E090E0DC01C12CD12C760140E04A
S11304B050E0BA0180FE18C0400F511F621F731F25
S11304C08C0D9D1DAE1DBF1D412C512C320143943A
S11304D0401751076207730718F0412C512C320161
S11304E0840D951DA61DB71DCC0CDD1CEE1CFF1C38
S11304F037FF02C06894C0F8000F111F221F331F7A
S1130500B694A794979487943197A1F62B893C8944
S1130510EB85FC852E0F3F1F2E5F3F4F3C832B83C3
S113052021E0EA893A85E31301C020E02A83EB81C4
S1130530FC810CC080FF05C076956795579547955B
S11305407068B695A795979587953196B7FDF2CFC4
S11305509F010CC0880F991FAA1FBB1F77FD8160E4
S1130560440F551F661F771F215031090097A105BD
S1130570E0E4BE0778F32B833C838C019D010F7765
S1130580112722273327003411052105310559F499
S113059087FD09C0452B462B472B29F0805C9F4FD4
S11305A0AF4FBF4F80788D839E83AF83B88783E03E
S11305B08983CE01019602C08DE690E089D1A09690
S11305C0E0E11DC6A8E1B0E0E7EEF2E004C66D8B01
S11305D07E8B8F8B988F298B3A8B4B8B5C8BBE01D8
S11305E0675F7F4FCE0145963DD2BE016F5F7F4F5F
S11305F0CE01419637D29985923008F475C089812D
S1130600823008F474C02A853A8123272A879430DB
S113061011F0923019F4981367C06CC0843039F427
S11306201D861E861F86188A1C861B8604C082307F
S113063029F484E08987CE0109965EC08B859C8568
S11306402B813C81821B930B9C878B874D855E8518
S11306506F857889CD80DE80EF80F8844C155D0548
S11306606E057F0538F4440F551F661F771F0197E9
S11306709C878B87EFE1F0E000E010E020E030E4BD
S113068080E090E0DC014C155D056E057F0540F0CF
S1130690802B912BA22BB32B4C195D096E097F097A
S11306A03695279517950795440F551F661F771F95
S11306B0319749F78C019D010F77112722273327A2
S11306C0003411052105310559F487FD09C0452B76
S11306D0462B472B29F0805C9F4FAF4FBF4F80784C
S11306E08D879E87AF87B88BCE01099605C0CE0152
S11306F0019602C08DE690E0EBD06896E8E087C5ED
S1130700A8E1B0E0E5E8F3E06CC56D8B7E8B8F8BE0
S1130710988F298B3A8B4B8B5C8BBE01675F7F4F25
S1130720CE0145969FD1BE016F5F7F4FCE014196AA
S113073099D18985823050F08981823038F0BE01A8
S11307406F5F7F4FCE010996FCD101C08FEF689691
S1130750E2E063C5ACE0B0E0EFEAF3E040C56987EE
S11307607A878B879C87BE016F5F7F4FCE01099686
S113077079D18981823091F1823080F1843041F4E1
S11307808A81882331F100E010E020E030E829C0BC
S11307902B813C8137FD22C02F3131058CF78EE14E
S11307A090E0821B930B0D811E812F81388504C03C
S11307B036952795179507958A95D2F78A818823C8
S11307C081F030952095109501951F4F2F4F3F4F85
S11307D008C00FEF1FEF2FEF3FE703C000E010E06A
S11307E09801B801C9012C96E4E015C5A8E0B0E071
S11307F0EBEFF3E0F0C48B019C011A8261157105E3
S11308008105910519F482E089835CC083E08983C2
S11308104EE150E05C834B83C901B801B9D4019720
S113082097FF39C0EE27FF27E81BF90B41E050E0A2
S113083060E070E00E2E04C0440F551F661F771F42
S11308400A94D2F741505109610971094023512397
S113085062237323C12CD12C7601C394452B462BE0
S1130860472B19F4C12CD12C760104C03695279559
S113087017950795EA95D2F70C291D292E293F29AA
S11308800D831E832F8338872EE130E0281B390B1C
S11308903C832B8317C0009729F40D831E832F8379
S11308A0388710C0082E04C0000F111F221F331FE9
S11308B00A94D2F70D831E832F833887481B590B64
S11308C05C834B83CE01019603D02896E8E09FC455
S11308D00F931F93CF93DF93DC0114964D915D9199
S11308E06D917C9117971196EC9111978C918230B0
S11308F020F460618FEF90E0A6C0843009F49EC0BC
S1130900823009F495C0411551056105710509F45A
S113091092C012962D913C91139722388FEF38078D
S11309200CF058C0C2E8DFEFC21BD30BCA31D105AB
S11309306CF58A019B010C2E04C0369527951795FA
S113094007950A94D2F781E090E0A0E0B0E00C2E85
S113095004C0880F991FAA1FBB1F0A94D2F70197DE
S1130960A109B10984239523A623B72341E050E0CC
S113097060E070E0892B8A2B8B2B19F440E050E067
S1130980BA01402B512B622B732B03C040E050E083
S1130990BA01DB01CA018F779927AA27BB278034C4
S11309A09105A105B10539F447FF09C0405C5F4FCB
S11309B06F4F7F4F04C0415C5F4F6F4F7F4F81E0AB
S11309C090E041155105610520E4720748F580E087
S11309D090E026C0203831058CF5DB01CA018F7701
S11309E09927AA27BB2780349105A105B10539F4BD
S11309F047FF09C0405C5F4F6F4F7F4F04C0415CAD
S1130A005F4F6F4F7F4F77FD04C0C90181589F4FDF
S1130A1007C07695679557954795C90180589F4FAC
S1130A2097E076956795579547959A95D1F70BC0BA
S1130A3080E090E005C080E090E005C08FEF90E09A
S1130A4040E050E0BA01982F9695E0FB97F9362FD5
S1130A5080FB37F9642F752F832FDF91CF911F917E
S1130A600F910895CF92DF92EF92DC01FB01CC90BD
S1130A701196DC90119712968C9112973FE7E32E12
S1130A80E8226E2DA60170E0982F991F9927991FCF
S1130A9013962C91822F880F892B90E027FB222715
S1130AA020F92183009729F5411551056105710548
S1130AB011F482E027C082E89FEF9383828327E0CA
S1130AC0440F551F661F771F2A95D1F783E0808353
S1130AD009C0440F551F661F771F828193810197B8
S1130AE09383828341155105610580E4780788F377
S1130AF020C08F3F910579F44115510561057105B9
S1130B0019F484E0808319C0E4FE03C081E080838B
S1130B1010C010820EC08F5791099383828383E0A3
S1130B20808387E0440F551F661F771F8A95D1F78E
S1130B3070644483558366837783EF90DF90CF900E
S1130B400895CF93FC01DB019081923008F452C0E8
S1130B508C91823008F44EC0943071F4843039F4AE
S1130B6011962C9130E08181281B310948C0818184
S1130B70882309F43FC03BC0843029F411968C913A
S1130B80811138C034C0923019F48230B9F735C0BD
S1130B90823069F3C18111968C911197C8131DC0DD
S1130BA02281338112968D919C911397821793071A
S1130BB00CF413C0281739070CF417C0448155816D
S1130BC06681778114968D919D910D90BC91A02D95
S1130BD084179507A607B70718F4C11108C00AC0FF
S1130BE0481759076A077B0740F4C11103C02FEF68
S1130BF03FEF05C021E030E002C020E030E0C90151
S1130C00CF91089527E030E090E0AC01022E02C0BD
S1130C10559547950A94E2F740FF02C0AD9A01C08A
S1130C20AD984AE14A95F1F700C0979A4AE14A958E
S1130C30F1F700C097982150310938F708958C30A6
S1130C4079F028F48A3031F08B3069F406C08F30A3
S1130C5050F40895809160000BC08091610008C039
S1130C608091620005C0E82FF0E0ED59FF4F8081CC
S1130C70C9CFAF92BF92CF92DF92EF92FF920F93C0
S1130C801F93CF93DF9300D0CDB7DEB78B015A010A
S1130C90AB988B3E2FEF920741F48AE0D0DF8AE0D5
S1130CA0CEDF8AE0CCDF8BE027C097FD11C044E0A3
S1130CB0D42E5AE0E52EF12CB70157D269837A83FA
S1130CC0BEDF6981862F7A81972FDA94A9F715C040
S1130CD09195819591093AE0E32EF12CB70145D223
S1130CE06B01ADDFC601B70140D26B01A8DFC601BD
S1130CF0B7013BD2A4DF8CE0A2DF0115110549F452
S1130D008AE09DDF8AE09BDF8AE099DF8BE097DF52
S1130D1011C094E0D92E2AE0E22EF12CC801B701CB
S1130D2010D269837A838BDF6981062F7A81172F2A
S1130D30DA94A1F7A114B10449F48AE080DF8AE0CF
S1130D407EDF8AE07CDF8BE07ADF10C084E0F82E5F
S1130D500AE010E0C501B801F4D169837A836FDF3A
S1130D606981A62E7A81B72EFA94A1F7AC9A8FE8FE
S1130D7091E00197F1F700C00000AC98AB9A0F9096
S1130D800F90DF91CF911F910F91FF90EF90DF9023
S1130D90CF90BF90AF90089518BA17BA15BA88E3E8
S1130DA084BB12BA80E881BB13BE12BE1FBC94E0A0
S1130DB09EBD1DBC93E29CBD17BC16BC1BBC1ABCDB
S1130DC019BC18BC12BC97E095BD14BC13BC15BE6D
S1130DD094E499BF1AB888B910BE80E487B987E84B
S1130DE086B91DB816BE08951F920F920FB60F92C2
S1130DF011242F933F934F935F936F937F938F931C
S1130E009F93AF93BF93EF93FF931DBC83E28CBD7D
S1130E108CE365D184E563D18DE361D180917A005F
S1130E2090917B0075D183E65AD18EE358D18CE33F
S1130E3056D188E454D18DE352D1809176009091BB
S1130E40770066D185E24BD18EE349D18CE347D15B
S1130E5080E545D18DE343D180917800909179006C
S1130E6057D18BE63CD180E53AD181E638D18EE387
S1130E7036D1FF91EF91BF91AF919F918F917F9167
S1130E806F915F914F913F912F910F900FBE0F90F3
S1130E901F9018951F920F920FB60F9211242F9343
S1130EA03F934F935F936F937F938F939F93AF93EE
S1130EB0BF93EF93FF9348E750E066E770E08AE75B
S1130EC090E03ED040917800509179006091760096
S1130ED07091770080917A0090917B00CADEFF9137
S1130EE0EF91BF91AF919F918F917F916F915F919E
S1130EF04F913F912F910F900FBE0F901F90189517
S1130F004BDFFED078942FEF89E698E121508040A2
S1130F109040E1F700C00000F6CF806487B94AE64C
S1130F204A95F1F700C0369A349BFECF349A24B127
S1130F3035B1932F80E0AC01420F511DCA010895D1
S1130F40EF92FF920F931F93CF93DF937C018B015A
S1130F50EA0180E0E2DFBC0180E090E047DC20E0D1
S1130F6030E040EA50E44EDA20E030E040E85AE372
S1130F7049DA20E030E040E05FE31ADA2AE037EDB6
S1130F8043E25CE31FDB6BD89B012C5E3F4F2D38A3
S1130F90310520F4F7017183608305C08BEE9FEF68
S1130FA0F7019183808381E0B8DFBC0180E090E0A9
S1130FB01DDC20E030E040EA50E424DA20E030E0B8
S1130FC040E85AE31FDA2DEC3CEC4CE45FE3F0D943
S1130FD022EA35E444EF51E415DA41D89B01255067
S1130FE03109F8012B35310518F47183608302C08F
S1130FF01182108282E091DFBC0180E090E0F6DB98
S113100020E030E040EA50E4FDD920E030E040E860
S11310105AE3F8D923E333E343EF5EE3A3D92CEE99
S113102031E548E35DE3CEDA1AD89B012F5031094C
S11310302536310518F47983688302C01982188231
S1131040DF91CF911F910F91FF90EF9008951F9220
S11310500F920FB60F9211242F938F939F93EF93B8
S1131060FF93E091FE008E2F8F5F8F739CB12091D0
S1131070FD00821731F0F0E0E354FF4F908380933A
S1131080FE00FF91EF919F918F912F910F900FBED2
S11310900F901F9018951F920F920FB60F92112464
S11310A08F939F93EF93FF938091FF0090917C0027
S11310B0891759F0E82FF0E0E358FF4F90819CB96D
S11310C08F5F8F738093FF0001C05598FF91EF915C
S11310D09F918F910F900FBE0F901F901895E091E4
S11310E07C009E2F9F5F9F732091FF00921739F021
S11310F0F0E0E358FF4F808390937C00559A089565
S113110087E689B910BC88E98AB980E380BD08956F
S1131110CF93DF9368EE73E014D064E670E011D0EF
S1131120EC01862F805DDBDFCE016AE070E009D040
S1131130C82F862F805DD3DF8C2F805DDF91CF9108
S1131140CECFAA1BBB1B51E107C0AA1FBB1FA6170A
S1131150B70710F0A61BB70B881F991F5A95A9F75C
S113116080959095BC01CD01089597FB072E16F448
S1131170009406D077FD08D0E4DF07FC05D03EF4E8
S1131180909581959F4F0895709561957F4F08952F
S113119006D084FF0895CB0102D0805F0895AA276A
S11311A0992329F4A85F982B11F480E108959031D4
S11311B018F4AD5F9295A395990FE8F78A2F9927B4
S11311C008952F923F924F925F926F927F928F92E7
S11311D09F92AF92BF92CF92DF92EF92FF920F93C2
S11311E01F93CF93DF93CDB7DEB7CA1BDB0B0FB6CC
S11311F0F894DEBF0FBECDBF09942A883988488889
S11312005F846E847D848C849B84AA84B984C8841E
S1131210DF80EE80FD800C811B81AA81B981CE0F15
S1131220D11D0FB6F894DEBF0FBECDBFED010895FA
S1071230F894FFCF5C
S1131234FF86BFC0F9A4B0999282F88090000000A0
S1091244000000000000A0
S9030000FC
