:100000000C94BA010C94CF010C94CF010C94CF0145
:100010000C94CF010C94CF010C94CF010C94CF0120
:100020000C94CF010C94CF010C94CF010C94CF0110
:100030000C94CF010C94CF010C94CF010C94CF0100
:100040000C94CF010C94CF010C94CF010C94CF01F0
:100050000C94CF01000000000000004F00000007DA
:10006000000700147F147F14242A7F2A1223130808
:10007000646236495522400005030000001C2241FD
:10008000000041221C0014083E081408083E08081D
:1000900000503000000808080808006060000020D8
:1000A000100804023E5149453E00427F4000426133
:1000B0005149462141454B311814127F10274545BF
:1000C00045393C4A494930017109050336494949D6
:1000D00036064949291E0036360000005636000013
:1000E00008142241001414141414004122140802AC
:1000F00001510906324971413E7E1111117E7F493D
:100100004949363E414141227F4141221C7F4949B4
:1001100049417F090909013E4149493A7F080808D8
:100120007F00417F41002040413F017F0814224170
:100130007F404040407F020C027F7F0408107F3EDA
:100140004141413E7F090909063E4151215E7F0937
:10015000192946464949493101017F01013F404083
:10016000403F1F2040201F3F4030403F6314081491
:100170006307087008076151494543007F4141000A
:1001800002040810200041417F00040201020440E3
:1001900040404040000102040020545454787F48FD
:1001A0004444383844444420384444487F38545404
:1001B0005418087E0901020C5252523E7F08040472
:1001C0007800447D40002040443D007F10284400DA
:1001D00000417F40007C041804787C0804047838CF
:1001E000444444387C14141408081414187C7C0803
:1001F0000404084854545420043F4440203C4040E8
:10020000207C1C2040201C3C4030403C44281028CE
:10021000440C5050503C4464544C44000836410057
:1002200000007F00000041360800020102020100C8
:10023000000000007E1111117E7F494949337F493A
:100240004949367F01010103E0514F41FF7F494990
:10025000494177087F087741494949367F100804AA
:100260007F7C2112097C7F0814224120413F017FBD
:100270007F020C027F7F0808087F3E4141413E7F9C
:100280000101017F7F090909063E41414122010127
:100290007F010147281008071C227F221C631408D5
:1002A00014637F404040FF070808087F7F407F407D
:1002B0007F7F407F40FF017F4848307F4830007F8C
:1002C000007F484830224149493E7F083E413E4632
:1002D0002919097F20545454783C4A4A49317C54A6
:1002E0005428007C0404040CE0544C44FC3854545E
:1002F00054186C107C106C44445454287C20100812
:100300007C7C4122117C7C1028440020443C047CED
:100310007C0810087C7C1010107C38444444387CE5
:100320000404047C7C141414083844444420040459
:100330007C04040C5050503C3048FC483044281099
:1003400028447C404040FC0C1010107C7C407C40D9
:100350007C7C407C40FC047C5050207C5050207CB5
:100360007C5050200028445454387C1038443808BD
:100370005434147C11241FBECFE5D4E0DEBFCDBFC2
:1003800010E0A0E6B0E0EEE9F7E002C005900D92C3
:10039000AC37B107D9F70E94D1010C94CD030C946E
:1003A00000000E94A403C69A82E064E140E650E0A7
:1003B0000E94810380E061E048E650E00E948103F2
:1003C000C69880E090E00895C0989FEF9ABB1BBA52
:1003D000C19898B3962B98BB8BBB0000000000001F
:1003E000000000000000000000000000000000000D
:1003F00000000000000000000000000000000000FD
:10040000000000000000000000000000C29A000090
:10041000000000000000000000000000C298000082
:1004200000000000000000000000000000000000CC
:1004300000000000000000000000000000000000BC
:1004400000000000000000000000000000000000AC
:10045000C398C4980895C09A9FEF9ABB1BBAC198DD
:1004600098B3962B98BB8BBB0000000000000000E7
:10047000000000000000000000000000000000007C
:10048000000000000000000000000000000000006C
:1004900000000000000000000000C29A0000000000
:1004A00000000000000000000000C29800000000F2
:1004B000000000000000000000000000000000003C
:1004C000000000000000000000000000000000002C
:1004D0000000000000000000000000000000C398C1
:1004E000C4980895FF920F931F93F82E08EB802F66
:1004F00068E10E94E40110E4812F68E10E94E401B8
:100500008F2D68E10E942B021F5F1038A9F70F5F43
:10051000003C69F71F910F91FF900895C09A1ABA95
:100520009FEF9BBBC19A98B3982B98BB000000002B
:1005300000000000000000000000000000000000BB
:1005400000000000000000000000000000000000AB
:100550000000000000000000000000000000C29A3F
:100560000000000000000000000000000000C29831
:10057000000000000000000000000000000000007B
:10058000000000000000000000000000000000006B
:10059000000000000000000000000000000000005B
:1005A0000000C29A000000000000000000000000EF
:1005B000000000000000000000000000000000003B
:1005C000000000000000000000000000000000002B
:1005D00000000000000089B3C298C398C498089531
:1005E000DF92EF92FF920F931F93F82ED42E603478
:1005F00010F408E002C0605400E12F2D277081E064
:1006000090E0182F01C0110F2A95EAF780E4E82E38
:10061000E60E8E2D602F0E94E401F694F694F69477
:1006200088EBF80E8F2D602F0E94E401802F0E942E
:100630008E02DD2021F091E0D91631F403C010952F
:10064000182303C0182701C0182B8E2D602F0E947D
:10065000E4018F2D602F0E94E401812F602F0E9402
:100660002B021F910F91FF90EF90DF900895BF92A2
:10067000CF92DF92EF92FF920F931F93CF93DF936E
:10068000E82EF62EB42E69012FE3261718F0062F58
:1006900018E003C0062F005410E1802F805C612F0A
:1006A0000E94E40138EBE30E8E2D612F0E94E401DD
:1006B000E60117C0003471F4103111F480E817C05E
:1006C00080E460E10E94E4018E2D60E10E94E4017B
:1006D00010E100E0FE018491612F0E942B0221961F
:1006E0000F5F9E012C192B1529F78B2D8F0DDF9194
:1006F000CF911F910F91FF90EF90DF90CF90BF901F
:1007000008950F931F93CF93DF93182FEA0105E00D
:1007100013C067FF04C01F5F183088F460E06F5F8C
:100720008052809F900111242C5A3F4F812F45E029
:100730000E943703682F21968881882351F7DF9123
:10074000CF911F910F9108958FEF8ABB1BBA87B38A
:100750008F6787BB88B3886388BBC598000000009B
:100760000000000000000000C59A80E29EE40197AE
:10077000F1F78FE368E10E94E40180E468E10E9400
:10078000E40188EB68E10E94E40180EC68E10E94EA
:0E079000E40180E00E9472020895F894FFCF09
:10079E0044692048616C740045617379456C6563EA
:0C07AE0074726F6E6963732E7275000028
:00000001FF
